:020000040800F2
:1000000008290020D9010008E1010008E3010008E7
:10001000E5010008E7010008E90100080000000010
:10002000000000000000000000000000EB010008DC
:10003000ED01000800000000EF010008A58D000898
:10004000F3010008F3010008F3010008F3010008C0
:10005000F3010008F3010008F3010008F3010008B0
:10006000F3010008F3010008F3010008F3010008A0
:10007000F3010008F3010008F3010008F301000890
:10008000F3010008F3010008750900083D0B0008A2
:100090001D0B00082D0B0008F3010008F3010008F8
:1000A000F3010008F3010008F3010008F301000860
:1000B000F30100087D8F0008F3010008F301000838
:1000C000F3010008F3010008F3010008F301000840
:1000D000F3010008F3010008F3010008F301000830
:1000E000F3010008F3010008F3010008F301000820
:1000F000F3010008F3010008F3010008F301000810
:10010000F3010008F3010008F3010008F3010008FF
:10011000F3010008F3010008F3010008F3010008EF
:1001200095280008F3010008F3010008F301000816
:10013000F301000800000000000000006D0B000843
:100140004D0B00085D0B0008F3010008F3010008E7
:10015000F3010008F3010008F3010008F3010008AF
:10016000F3010008F3010008F3010008F30100089F
:10017000F3010008F3010008F3010008000000008B
:1001800000000000F3010008000000000000000073
:10019000F30100080000000000000000F301000867
:1001A000000000000000000000000000F301000853
:1001B000F3010008F3010008F3010008F30100084F
:1001C000F3010008DFF80CD000F0D0FA0048004737
:1001D0001192000808290020064880470648004779
:1001E000FEE7FEE7FEE7FEE7FEE7FEE7FEE7FEE7E7
:1001F000FEE7FEE7C58E0008C5010008D2B201E0A7
:1002000000F8012B491EFBD270470022F6E710B51B
:1002100013460A4604461946FFF7F0FF204610BD74
:10022000034611F8012B00F8012B002AF9D11846DA
:1002300070472DE9FE4F804681EA0300C00F0C464F
:10024000009021F0004123F00045B8EB0200A941E5
:1002500005D24046214690461C460B46024623F0F6
:100260000040104347D0270DC7F30A00C3F30A51DB
:100270000290401A019040286BDAC3F3130040F457
:10028000801B0098924620B10023D2EB030A63EB57
:100290000B0B01985946C0F14002504600F0D8F9C6
:1002A00006460D4650465946019A00F0F0F910EB0B
:1002B00008006141002487EA115284EAE7731A4377
:1002C00040D0009A62B3019A012A4FEA075215DC26
:1002D000001B61EB02014FF0004202EA0752CDE938
:1002E0000042001C41F5801132462B4600F0F0F927
:1002F00003B0BDE8F08F40462146F9E7001B61EBF3
:100300000201001C41F5801300185B412018A2F582
:10031000001747EB030140EAD570B6196D4111E0B3
:100320006D084FEA360645EAC0754FEA0752001BD2
:1003300061EB0201001C41F5801149084FEA3000D1
:100340000019514132462B4603B0BDE8F04F00F092
:10035000B0B90098012240000023D0EB020263EB09
:10036000E073009821464FEAE074B8EB000061EBBF
:100370000401E9E783F000435BE781F0004158E7BF
:100380002DE9FE4F81EA030404F0004421F000410E
:1003900000944FF0000B23F0004350EA01045ED0BC
:1003A00052EA03045BD0C3F30A54C1F30A552C4448
:1003B000A4F2F3340194A0FB0254C1F3130141F4FD
:1003C0008011C3F3130343F4801301FB024400FBC9
:1003D000034E840A970A44EA815447EA8357A4FBF0
:1003E000076802958D0A05FB07854FEA932C04FBED
:1003F0000C542705029D4FEA065847EA1637B5EB1D
:1004000008056EEB070C870E920E47EA811742EA49
:100410008312A7FB0201B6EB0B0164EB00042B0D6A
:1004200043EA0C335E1844EB1C50DA465146E7FBB6
:100430000201C5F313044FEA0B3343EA14534FEAA6
:100440000432019C43EA0603A4F10C040294009CCC
:10045000CDE900B400F03CF903B0BDE8F08F002016
:100460000146F9E72DE9F04D81EA030404F0004B61
:1004700021F0004514464FF0000A23F0004150EAF5
:10048000050220D054EA01021DD0C5F30A570246E6
:10049000C5F31303C1F31300C1F30A5640F48015EA
:1004A00043F48013A7EB0608101BD64608F2FD386C
:1004B00073EB050002D308F1010801E092185B41DB
:1004C000B8F1000F03DA00200146BDE8F08D0020EE
:1004D0004FF48011064684460EE0171B73EB0507A8
:1004E00005D3121B63EB050306434CEA010C4908D4
:1004F0004FEA300092185B4150EA0107EDD152EA11
:10050000030012D082EA040083EA0501084305D003
:10051000101BAB4106D20122002306E000224FF05F
:10052000004302E06FF0010253101AEB06004CEB9F
:10053000085110EB0A0041EB0B01BDE8F04D00F053
:10054000B8B80EB5C10F80EAE0700844CA070021B0
:1005500040F233438DE80E000A460B4600F0B8F82F
:1005600003B000BD0EB540F2334102910021CDE948
:1005700000110A460B4600F0ABF803B000BD70B5A1
:10058000C1F30A5201F000450024C1F3130140F207
:10059000FF3341F480119A4201DA002070BD40F22D
:1005A00033439A42A2F2334203DC524200F05FF836
:1005B00000E090402C43F1D0404270BDC1F30A529C
:1005C00010B5C1F3130140F2FF3341F480119A4298
:1005D00001DA002010BD40F233439A42A2F23342C6
:1005E00003DC524200F043F810BD904010BD000003
:1005F00030B5041E71F1000404DB4FF000444042AA
:1006000064EB0101141E73F1000405DB1C464FF07E
:100610000043524263EB04038B4208BF824230BD69
:1006200030B5041E71F1000404DB4FF00044404279
:1006300064EB0101141E73F1000405DB1C464FF04E
:100640000043524263EB0403994208BF904230BD1D
:10065000202A04DB203A00FA02F100207047914082
:10066000C2F1200320FA03F3194390407047202A77
:1006700004DB203A21FA02F00021704721FA02F34C
:10068000D040C2F120029140084319467047202A09
:1006900006DBCB17203A41FA02F043EAE07306E0AA
:1006A00041FA02F3D040C2F12002914008431946BA
:1006B000704710B5141E73F1000408DA401C41F1B4
:1006C000000192185B411A4301D120F0010010BDD6
:1006D0002DE9F04D92469B4611B1B1FA81F202E04C
:1006E000B0FA80F220329046FFF7B2FF04460F4680
:1006F00040EA0A0041EA0B0153465A46084313D028
:10070000114653EA010019D0C8F140025046FFF7E4
:10071000AEFF05460E46504659464246FFF798FF43
:10072000084305D0012004E020463946BDE8F08D9D
:100730000020054346EAE0762C4337430A986305D8
:10074000E40AA0EB08000022FD0A44EA47540A30FC
:1007500002D500200146E9E7010510196941DDE9EC
:10076000084500196941BDE8F04DA2E7064C074D68
:1007700006E0E06840F0010394E807009847103471
:10078000AC42F6D3FFF722FDB8920008D8920008D9
:100790001FB56148614908604FF44030486000214E
:1007A0005E488160C1600121016100214161012138
:1007B0008161C1610B21016200214162816201639B
:1007C000C16203F045F908B108F062FD00BF0620E0
:1007D00000900120019007200290002003906946BC
:1007E0004E4802F029FF08B108F052FD00BF0A2070
:1007F000009002200190072002906946474802F0CD
:100800001BFF08B108F044FD00BF0B20009003203F
:100810000190072002906946404802F00DFF08B1A0
:1008200008F036FD00BF0C20009004200190072046
:1008300002906946394802F0FFFE08B108F028FD31
:1008400000BF0D200090052001900720029069460E
:10085000324802F0F1FE08B108F01AFD00BF022094
:100860000090062001900720029069462B4802F074
:10087000E3FE08B108F00CFD00BF03200090072044
:10088000019002906946254802F0D6FE08B108F0B2
:10089000FFFC00BF0120009008200190072002907B
:1008A00069461E4802F0C8FE08B108F0F1FC00BF1E
:1008B0000720009009200190072002906946174800
:1008C00002F0BAFE08B108F0E3FC00BF0E20009071
:1008D0000A200190072002906946104802F0ACFE01
:1008E00008B108F0D5FC00BF0F2000900B2001904C
:1008F000072002906946094802F09EFE08B108F000
:10090000C7FC00BF0B220649044803F035F908B1C3
:1009100008F0BEFC00BF1FBD00200140C400002045
:10092000A801002070B50546AC6B94F83D00252861
:1009300003D1352084F83D0002E0152084F83D0005
:10094000204602F047FF70BD70B50546AC6B042031
:1009500084F83D00206C40F002002064204602F044
:10096000C2FF70BD70B50446A56B284602F0BAFF01
:1009700070BD000010B5024802F0BBFF10BD0000C2
:10098000C40000205A49096821F44031594AC2F88C
:1009900004131146D1F8041342681143544A1160FC
:1009A0000168496821F480710268516001684A68F1
:1009B000016942EA0121026851600168496821F039
:1009C0004071026851600168496882681143026899
:1009D00051600168896821F40061026891600168D2
:1009E0008968C268114302689160434AC16A9142B2
:1009F00018D00168896821F070610268916001680F
:100A00008968C26A1143026891600168896821F0AF
:100A100040510268916001688968026B1143026865
:100A200091600BE00168896821F070610268916053
:100A30000168896821F04051026891600168896805
:100A400021F002010268916001688A68816942EAC6
:100A5000410102689160416AD1B10168496841F47D
:100A60000061026851600168496821F460410268D0
:100A7000516001684A68816A491E4FF4604393FAE5
:100A8000A3F3B3FA83F399400A4301684A6005E08F
:100A90000168496821F40061026851600168C96A0F
:100AA00021F470010268D1620168CA6A018C491E92
:100AB00042EA01510268D1620168896821F400713B
:100AC0000268916001688A68C16942EA412102684E
:100AD00091600168896821F4806102689160016811
:100AE0008A68416942EA812102689160704700008A
:100AF00004230140002001400100000F10B507F061
:100B000007FB01F0EFF80021034803F069FB08B18F
:100B100001F066FB10BD00004424002010B502481F
:100B200003F046F910BD00004424002010B502482F
:100B300003F03EF910BD00004424002010B5024827
:100B400003F036F910BD00004424002010B502481F
:100B500003F02EF910BD00004424002010B5024817
:100B600003F026F910BD00004424002010B502480F
:100B700003F01EF910BD00004424002038B5002009
:100B8000009013E00C4B009C03EB04135A7B0A4BC0
:100B900003EB04139968084B03EB041001F042F9CE
:100BA00000200549009A01EB02110873684602F023
:100BB0002BF90028E6D138BD44140020F8B50446CE
:100BC0000D4616461248B0F8F60940F001001049EB
:100BD000A1F8F6090F4800780A46009092F8A21092
:100BE00092F8F0090C4B4FF4007201F041F90848FB
:100BF000B0F8F60920F001000549A1F8F609084609
:100C0000B0F8F60940F00200A1F8F609F8BD0000BE
:100C1000BC080020740000206C000020F8B50446D9
:100C20000E461546F8A1FB48FFF7FAFAFAA1F94873
:100C30001030FFF7F5FAFCA1F6482030FFF7F0FA84
:100C4000FCA1F4483030FFF7EBFAFE4800210160C8
:100C500041601DB90020FC49087006E02078FA497F
:100C6000087008460078401C0870F7480078F5497D
:100C700008700820F5490870F348007807287DD0EF
:100C800006DC7CD2DFE800F0153F6089ACD0F600CE
:100C90000B2875D006DC082873D0092872D00A28E2
:100CA0006DD17BE10C286ED00D286DD0FF28F7D1D7
:100CB00028E2D8482538B0F8F60940F00400D549B4
:100CC0002539A1F8F60908460078DE494870D14870
:100CD000253880788870CF4825384088000AC87049
:100CE000CC48253800790871CA4825388088000A20
:100CF0004871C8482538807A8871C64825384089A7
:100D00000012C87109E2C3482538007BCD494870FC
:100D1000C0482538808900128870BE482538807BFD
:100D2000C870BC482538C08900120871B9482538F8
:100D3000807C4871B7482538408A00128871B548D0
:100D40002538007DC871E8E1B2482538007DBD49ED
:100D50004870B0482538807D8870AE482538C08AF4
:100D60000012C870AB482538007E0871A9482538A4
:100D7000008B00124871A748253806E09FE0CBE1C0
:100D800031E1C1E0E5E074E191E1807E8871A14844
:100D90002538408B0012C871BFE19E482538007F7E
:100DA000A84948709B482538407F88709948253865
:100DB00090F82000C87097482538008C000A087108
:100DC00094482538006A000C487192482538006A1A
:100DD000000E88718F48253890F82400C8719CE176
:100DE0008C4825388079974948708A482538C088CA
:100DF000000A88708748253890F82500C870854813
:100E0000253890F8260008718248253890F8270088
:100E100048718048253890F8280088717D48253829
:100E200090F82900C87178E17A48253890F82A00AE
:100E3000844948707748253890F82B0088707548A9
:100E4000253890F82C00C8707248253890F82D008D
:100E500008717048253890F82E0048716D48253883
:100E600090F82F0088716B48253890F83000C871D1
:100E700053E1FFE76748253890F831007149487021
:100E80006448253890F8320088706248253890F818
:100E90003300C8705F48253890F8340008715D4809
:100EA000253890F8350048715A48253890F83600B2
:100EB00088715848253890F83700C8712DE1554899
:100EC000253890F838005F4948705248253890F826
:100ED000390088704F48253890F83A00C8704D485E
:100EE000253890F83B0008714A48253890F83C00B6
:100EF00048714848253890F83D00887145482538A4
:100F000090F83E00C87108E14248253890F83F004B
:100F10004C4948703F48253890F8400088703D485B
:100F2000253890F84100C8703A48253890F84200BA
:100F300008713848253890F84300487135482538FD
:100F400090F8440088713348253890F84500C871FE
:100F5000E3E03048253890F846003A4948702D487B
:100F6000253890F8470088702A48253890F84800BE
:100F7000C8702848253890F8490008712548253858
:100F800090F84A0048712348253890F84B00887142
:100F90002048253890F84C00C871BEE01D4825381F
:100FA00090F84D00274948701A48253890F84E00AF
:100FB00088701848253890F84F00C87015482538B3
:100FC00090F8500008711348253890F85100487186
:100FD0001048253890F8520088710E48253890F84E
:100FE0005300C87199E00B48253890F85400154912
:100FF00048700848253890F855008870054825380D
:1010000090F85600C87023E0424F5720504F52547A
:1010100000000000E1080020424F57205354415285
:10102000204252440000000041465420504F525488
:101030000000000041465420535441522042524483
:10104000000000006C0000209C00002074000020C4
:101050003A4890F857000871384890F8580048719D
:10106000364890F859008871344890F85A00C87191
:1010700053E0324890F85B00314948702F4890F8AF
:101080005C0088702D4890F85D00C8702B4890F87F
:101090005E000871294890F85F004871274890F871
:1010A00060008871254890F86100C87135E02348D8
:1010B00090F8620022494870204890F863008870D8
:1010C0001E4890F86400C8701C48007A08711B48DC
:1010D0000089001248711948007C88711748008AFD
:1010E0000012C8711548B0F8F60920F00400134941
:1010F000A1F8F6090846B0F8F60940F00800A1F892
:10110000F6090AE00D48B0F8F6094FF6FB71084001
:101110000A49A1F8F60900BFF8BD00BF09480078E8
:10112000064A009092F8A21092F8F009044B40F29F
:10113000012200F09DFE00BFEEE70000BC08002089
:101140006C000020740000202DE9F0412DED0E8B85
:1011500088B004460F461546CD49C889FFF702FA04
:1011600041EC1E0B9FEDCB0B53EC102BFFF77AF9E4
:1011700041EC1C0BC649B1F9CA04FFF7E2F941EC96
:101180001D0B53EC1C2BFFF7FBF841EC1B0BFFF77F
:10119000F6F906B23046FFF7D4F941EC1A0B9FED91
:1011A000BF0B53EC102BFFF7EBF841EC190B9FED45
:1011B000BD0B53EC102BFFF73CF841EC180BFFF77D
:1011C000DEF900B20790B249B1F9D205FFF7B9F9DB
:1011D00041EC1D0B9FEDB50B53EC102BFFF7D0F836
:1011E00041EC1C0B9FEDB30B53EC102BFFF7C8F831
:1011F00041EC1B0BFFF7C3F90FFA80F8A449B1F9D2
:10120000DA06FFF79EF941EC1D0B9FEDA80B53EC9E
:10121000102BFFF7B5F841EC1C0B9FEDA60B53EC20
:10122000102BFFF7ADF841EC1B0BFFF7A8F900B24C
:1012300008EB00063046FFF784F941EC1A0B9FEDEE
:101240009F0B53EC102BFFF79BF841EC190B9FED14
:101250009D0B53EC102BFFF78DF841EC180BFFF7AB
:101260008EF900B206908A49B1F9AA00FFF769F930
:1012700041EC1B0B9FED950B53EC102BFFF780F807
:1012800041EC1A0B9FED930B53EC102BFFF772F808
:1012900041EC190B9FED910B53EC102BFFF7E2F88B
:1012A00041EC180BFFF76BF900B205907849B1F9E2
:1012B000B201FFF746F941EC1B0B9FED840B53EC99
:1012C000102BFFF75DF841EC1A0B9FED820B53ECEE
:1012D000102BFFF74FF841EC190B9FED800B53ECEF
:1012E000102BFFF7BFF841EC180BFFF748F900B2DD
:1012F00004906749B1F9BA02FFF723F941EC1B0BDF
:101300009FED720B53EC102BFFF73AF841EC1A0BE0
:101310009FED700B53EC102BFFF72CF841EC190BE1
:101320009FED6E0B53EC102BFFF79CF841EC180B64
:10133000FFF725F900B203905549B1F9C203FFF751
:1013400000F941EC1B0B9FED610B53EC102BFFF7E9
:1013500017F841EC1A0B9FED5F0B53EC102BFFF7C6
:1013600009F841EC190B9FED5D0B53EC102BFFF7C7
:1013700079F841EC180BFFF702F900B202905948D6
:101380000021016041601DB900205749087006E046
:1013900020785549087008460078401C087052486B
:1013A0000078504908700820504908704E4800786D
:1013B00020B1012827D0022854D13BE03448B0F8AE
:1013C000F60940F010003249A1F8F609BDF81C00FA
:1013D00044494870BDF81C00000A8870BDF8180028
:1013E000C870BDF81800000A0871294890F86A0012
:1013F00048712748B0F86A0000128871244890F8B4
:10140000A100C87133E0BDF8140036494870BDF83A
:101410001400000A8870BDF81000C870BDF81000F4
:10142000000A0871BDF80C004871BDF80C00000AF4
:1014300088711CE0BDF808002A494870BDF8080012
:10144000000A88701248B0F8F60920F01000104920
:10145000A1F8F6090846B0F8F60940F02000A1F816
:10146000F60904E008B0BDEC0E8BBDE8F08100BFCA
:101470001E480078064A009092F8A21092F8F009EF
:10148000184B40F2022200F0F3FC00BFEAE7000034
:10149000BC0800200000000000FEAF40CE70033EFC
:1014A0003F8CEE3F9EEA909BE106B43F00000000B7
:1014B000000024401FE8811EE8819E3F861BF0F952
:1014C0006184F03FE4BD6A65C22FD73FF0A7C64BE9
:1014D0003789E33F00000000006C934000000000EB
:1014E000000000406C0000209D00002074000020DF
:1014F000F8B504460E461546EB48002101604160F0
:10150000EA480078E84908700820E949087055B9A8
:1015100000200870E748B0F8F60940F00400E549FB
:10152000A1F8F609B1E10120E14908702078DF490E
:10153000087008460078DC490870DC480078072805
:1015400074D006DC73D2DFE800F0152D425C769093
:10155000A7000B286CD006DC08286AD0092869D0BF
:101560000A2864D1F4E00C287DD00D287CD0FF2817
:10157000F7D16AE16078CF490870A178E07801EB93
:10158000002000B2CB4948802179607901EB00202E
:1015900000B2C8498880A179E07901EB0020C549F3
:1015A000488171E16178A07801EB0020C149888110
:1015B000E178207901EB0020BE49C8816179A079EA
:1015C00001EB0020BB494882E07988825CE16078C9
:1015D0004FF6FF7101EA0020B6498882A178E078D1
:1015E00001EB0020B349C8822179607901EB00202A
:1015F000B0490883A179E07901EB0020AD49488327
:1016000042E16078AB490877A0784877E1782079A3
:1016100001EB0021607901EB0041A07901EB006052
:10162000A4490862E07981F824002DE14BE02AE129
:10163000A5E05FE075E06178A07801EB002000B2E2
:101640009C49C880E07881F825002179994880F884
:101650002610617980F82710A17980F82810E179A7
:1016600080F8291010E1A1E0B7E06178914880F896
:101670002A10A17880F82B10E17880F82C102179BD
:1016800080F82D10617980F82E10A17980F82F1044
:10169000E17980F83010F7E06178864880F8311001
:1016A000A17880F83210E17880F83310217980F841
:1016B0003410617980F83510A17980F83610E1791D
:1016C00080F83710E0E061787A4880F83810A17827
:1016D00080F83910E17880F83A10217980F83B10D1
:1016E000617980F83C10A17980F83D10E17980F8AB
:1016F0003E10C9E061786F4880F83F10A17880F80B
:101700004010E17880F84110217980F84210617929
:1017100080F84310A17980F84410E17980F84510F1
:10172000B2E06178634880F84610A17880F84710ED
:10173000E17880F84810217980F84910617980F8C3
:101740004A10A17980F84B10E17980F84C109BE0A9
:101750006178584880F84D10A17880F84E10E178F3
:1017600080F84F10217980F85010617980F851107D
:10177000A17980F85210E17980F8531084E0617803
:101780004C4880F85410A17880F85510E17880F822
:101790005610217980F85710617980F85810A17996
:1017A00080F85910E17980F85A106DE0617841486D
:1017B00080F85B10A17880F85C10E17880F85D100B
:1017C000217980F85E10617980F85F10A17980F846
:1017D0006010E17980F8611056E06178354880F852
:1017E0006210A17880F86310E17880F864102079A5
:1017F000617901EBC10202EB011100EB81002D497F
:101800000881A079E17901EBC10202EB011100EB43
:101810008100284908820846B0F8F6094FF6FB71A6
:1018200008402449A1F8F6090021224807F0D6FC17
:101830000021204807F054F91E48B0F8F60940F09E
:1018400008001C49A1F8F6091EE01A48B0F8F6098C
:1018500040F001001749A1F8F6090846B0F8F6096A
:1018600040F00200A1F8F6090846B0F8F60920F0A9
:101870000400A1F8F6090846B0F8F60920F00800BF
:10188000A1F8F60900E0F8BD00BF09480078094A50
:10189000009092F8A21092F8F009034B40F2032254
:1018A00000F0E6FA00BFEEE76C0000209E0000208A
:1018B00074000020BC080020F8B504460E4615460A
:1018C000DF480021016041605DB90020DD490870FA
:1018D000DD48B0F8F60940F00400DB49A1F8F6094C
:1018E0009EE10120D74908702078D8490870084641
:1018F0000078D3490870D5480078072874D006DCF2
:1019000073D2DFE800F0152D425C7690A7000B281B
:101910006CD006DC08286AD0092869D00A2864D16E
:10192000F4E00C287DD00D287CD0FF28F7D157E1BA
:101930006078C5490870A178E07801EB002000B21A
:10194000C14948802179607901EB002000B2BE498D
:101950008880A179E07901EB0020BB4948815EE1F4
:101960006178A07801EB0020B7498881E17820797F
:1019700001EB0020B449C8816179A07901EB002016
:10198000B1494882E079888249E160784FF6FF7179
:1019900001EA0020AC498882A178E07801EB0020C0
:1019A000A949C8822179607901EB0020A649088302
:1019B000A179E07901EB0020A34948832FE1607809
:1019C000A1490877A0784877E178207901EB0021D8
:1019D000607901EB0041A07901EB00609A4908624F
:1019E000E07981F824001AE14BE017E1A5E05FE01F
:1019F00075E06178A07801EB002000B29249C880C0
:101A0000E07881F8250021798F4880F826106179E7
:101A100080F82710A17980F82810E17980F8291042
:101A2000FDE0A1E0B7E06178874880F82A10A1784E
:101A300080F82B10E17880F82C10217980F82D1097
:101A4000617980F82E10A17980F82F10E17980F863
:101A50003010E4E061787C4880F83110A17880F89B
:101A60003210E17880F83310217980F834106179F0
:101A700080F83510A17980F83610E17980F83710B8
:101A8000CDE06178704880F83810A17880F839107E
:101A9000E17880F83A10217980F83B10617980F87C
:101AA0003C10A17980F83D10E17980F83E10B6E055
:101AB0006178654880F83F10A17880F84010E1789F
:101AC00080F84110217980F84210617980F8431044
:101AD000A17980F84410E17980F845109FE06178A1
:101AE000594880F84610A17880F84710E17880F8CE
:101AF0004810217980F84910617980F84A10A1795D
:101B000080F84B10E17980F84C1088E061784E48FD
:101B100080F84D10A17880F84E10E17880F84F10D1
:101B2000217980F85010617980F85110A17980F8FE
:101B30005210E17980F8531071E06178424880F8E2
:101B40005410A17880F85510E17880F8561021796A
:101B500080F85710617980F85810A17980F85910F1
:101B6000E17980F85A105AE06178374880F85B10C4
:101B7000A17880F85C10E17880F85D10217980F818
:101B80005E10617980F85F10A17980F86010E179CA
:101B900080F8611043E061782B4880F86210A178EA
:101BA00080F86310E17880F864102179607901EBA6
:101BB000002025490881A179E07901EB0020224924
:101BC00008820846B0F8F60920F00400A1F8F609EA
:101BD0000846B0F8F60940F00800A1F8F6091EE042
:101BE0001948B0F8F60940F001001749A1F8F609C4
:101BF0000846B0F8F60940F00200A1F8F6090846D8
:101C0000B0F8F60920F00400A1F8F6090846B0F88B
:101C1000F60920F00800A1F8F60900E0F8BD00BFC1
:101C200008480078084A009092F8A21092F8F0094B
:101C3000034B4FF4017200F01BF900BFEEE7000008
:101C40006C00002074000020BC0800209F000020D1
:101C500030B50B46017801F001044CB1054C2478F5
:101C6000022C01D100BF04E00224024D2C7000E0E0
:101C700000BF30BD0900002038B504461348047089
:101C800013480470134890F86C00114948701148CB
:101C9000B0F86C00000A88700E48C06E000CC87066
:101CA0000C48C06E000E0871FF2048718871C87121
:101CB00006480078074A009092F8A21092F8F009BE
:101CC000034B40F2052200F0D3F838BD7400002029
:101CD0006C000020BC0800200146C1F30B02104636
:101CE0007047000000B58BB000201C4908701C48EC
:101CF0001C4908601C4808631C48486300211948B7
:101D00008161C161016241628162C1628160C160C1
:101D10004FF4E02101610021416112201149486026
:101D2000084602F033F908B100F05AFA0020069094
:101D300007900120089000200190029003900490E9
:101D40000590012009900E200A9001A9054801F094
:101D500097FF08B100F044FA0BB000BDA1000020CD
:101D60000064004044240020C4240020E02400201B
:101D700000204FF40071224A22F81010214B024635
:101D8000401C214941F8223040F201211C4A22F82E
:101D900010101E4B0246401C1B4941F8223040F2F5
:101DA0000221174A22F81010194B0246401C16490E
:101DB00041F8223040F20321114A22F81010154B4D
:101DC0000246401C104941F822304FF401710C4A80
:101DD00022F81010104B0246401C0B4941F82230EB
:101DE00040F20521064A22F810100C4B0246401C16
:101DF000054941F82230411C094A11707047000022
:101E0000C4120020BD0B0008441300201D0C000864
:101E100049110008F1140008B9180008511C000805
:101E2000980000202DE9F04106460D461746284649
:101E3000FFF752FF804600240EE00A4830F81400F5
:101E4000404508D1084850F824303A4629463046E3
:101E50009847BDE8F081641C044800788442ECDBBC
:101E600000BFF6E7C41200204413002098000020B1
:101E70002DE9F04705460E4617469846DDF82090B6
:101E80002C462401344324033C4322464946404621
:101E900000F082F9BDE8F08770B504460D46206871
:101EA00000F5D87000EB0510006800F00400616BCD
:101EB0008860606B806860B9206800F5D87000EBBE
:101EC0000510006840F2FF7101EA5050616B086034
:101ED0000BE0206800F5D87000EB051000686FF08B
:101EE000604101EAD000616B4860206800F5D8705D
:101EF00000EB0510006800F00200616BC86020680C
:101F000000F5D87000EB0510406800F00F00616B21
:101F10000861206800F5D87000EB05104068C0F338
:101F20000720616BC861206800F5D87000EB0510D0
:101F30008068616B0875206800F5D87000EB0510AB
:101F40008068010A606B4175206800F5D87000EB6D
:101F500005108068010C606B8175206800F5D870F1
:101F600000EB05108068000E616BC875206800F5F5
:101F7000D87000EB0510C068C1B2606B01762068B4
:101F800000F5D87000EB0510C068010A606B41765F
:101F9000206800F5D87000EB0510C068010C606B7C
:101FA0008176206800F5D87000EB0510C068000E3F
:101FB000616BC87665B92068C06840F02000216870
:101FC000C8602068406920F00200216848610BE089
:101FD0002068006940F0200021680861206840699D
:101FE00020F010002168486194F8380022281DD1A3
:101FF0002068406920F48070216848612068406949
:1020000020F40070216848612068406920F48060F5
:10201000216848612068406920F4006021684861B7
:102020002068406920F400402168486194F8380035
:10203000322803D1122084F8380002E0012084F80D
:102040003800204602F023F9002070BD10B5FEF7DD
:1020500095FD0748007848B10020054908700A211D
:10206000044802F033F908B100F0BAF810BD0000DE
:10207000A10000204424002010B5044620684069D7
:1020800020F001002168486194F8380012281DD121
:102090002068406920F480702168486120684069A8
:1020A00020F40070216848612068406920F4806055
:1020B000216848612068406920F400602168486117
:1020C0002068406920F400402168486194F8380095
:1020D000322803D1222084F8380002E0012084F85D
:1020E0003800204602F022FA002010BD70B50346E9
:1020F0000024254D2C70254C2478FF2C0CDB00206F
:1021000004E00C5C204D2C54441C60B20828F8DB21
:102110001D4C247860B236E01D4C2478641C1C4DA4
:102120002C702C462478FF2C01D100242C70194CE3
:10213000174D2D7804EB0514247BFCB9154C144D78
:102140002D7804EB0514A3600124124D104E36784F
:1021500005EB06152C730F4C0D4D2D7804EB051473
:102160006273002008E00C5C0A4D094E367805EBDE
:1021700006152C54441C60B20828F4DB034C247868
:10218000641C024D2C7070BD342400209B00002084
:102190009A0000204414002030B50346082900DDD1
:1021A0000821002007E013F8015B0B4C246B14346A
:1021B0002554441C60B28842F5DB0424064D2D6B87
:1021C000AC60054C246B6260034C246B21610124DC
:1021D000024D2C7030BD000044240020A1000020DE
:1021E00007E04FF40051034805F00CF8642004F0B8
:1021F00038FEF6E700080240F0B503460D461646E5
:10220000002019E0104F57F82070AF4213D10E4F45
:10221000303757F820100D4FCA19002404E0176812
:102220001F705B1C521C641C074F603757F82070EE
:10223000A742F4D805E0401C034F143F3F69874292
:10224000E0D800BFF0BD0000380200200000060802
:102250002DE9F74F82B0814692460020019000257B
:102260001FE05C4850F825100398814218D14FEACE
:102270004A015848603050F8250081420DD2D046BE
:1022800004E0002009F8080008F101085148603016
:1022900050F82500401C4045F3D80120019005E08E
:1022A0006D1C4C4814380069A842DAD800BF019868
:1022B000002875D04FF480614648C030FDF7A5FF77
:1022C000454C2CE027684448201AFF21B1EB900FC1
:1022D00024D34148201A002202EB90023D48C0302E
:1022E0008754C7F307213C48201A012202EB9002D1
:1022F0003848C0308154C7F307413748201A0222BA
:1023000002EB90023348C0308154380E3249611AD2
:10231000032202EB91022F49C0318854241D2E481C
:10232000201AFF28CED94FF0000B2A48303050F841
:10233000256007E019F80B102648C03081550BF1D5
:10234000010B761C2348603050F82500401C2149C1
:10235000303151F825100844B042EBD804F03EFE6D
:102360001D4801F01DF91D49086001201C49086045
:1023700000201C4908600220086118480068886035
:1023800017480068C860F3201749086017491548C6
:1023900004F074FD08B100F057FD0F4C002610E06A
:1023A00014E00C48C03010F806C0624600232146F5
:1023B000184604F0C7FD08B9641C01E000F044FDB4
:1023C000761CB6F5806FECDB04F0B2FD05B0BDE81D
:1023D000F08F0000380200200000060824000020D2
:1023E00028000020100200200C3C02403000002099
:1023F00001200E4981F8A0000020A1F8A40081F876
:10240000A30000210948C0F8AC11C0F8B412C0F80C
:10241000BC13C0F8C414C0F8CC15C0F8D416C0F86A
:10242000DC17C0F8E418C0F8EC197047BC080020AD
:102430007249734AC2F8D414002000227049143142
:1024400041F82020303141F820201022303141F86D
:102450002020022273390A54433151F820104FF4DE
:10246000FA32B1FBF2F1491C654AA43242F820105D
:10247000401C01226249143141F82020411E604A6B
:10248000443252F82130411E303252F821105A188D
:102490005B49443141F820201022303141F820209E
:1024A000022273390A54433151F820104FF4FA32A2
:1024B000B1FBF2F1491C524AA43242F82010401CF0
:1024C00002224F49143141F82020411E4C4A443227
:1024D00052F82130411E303252F821105A18484922
:1024E000443141F820201022303141F820200222CE
:1024F00073390A54433151F820104FF4FA32B1FBCA
:10250000F2F2521C3E49A43141F82020401C07221F
:10251000903941F82020411E394A443252F8213086
:10252000411E303252F821105A183549443141F8D1
:1025300020206822303141F82020052273390A54C6
:10254000433151F820104FF4FA32B1FBF2F1491C3B
:102550002B4AA43242F82010401C0C222849143186
:1025600041F82020411E264A443252F82130411EB3
:10257000303252F821105A182149443141F82020B4
:102580000122303141F82020002273390A544331AE
:1025900051F820104FF4FA32B1FBF2F2521C1849F4
:1025A000A43141F82020401C0D22903941F8202010
:1025B000411E134A443252F82130411E303252F843
:1025C00021105A180E49443141F820207822303128
:1025D00041F82020052273390A54433151F8201064
:1025E0004FF4FA32B1FBF2F1491C054AA43242F829
:1025F0002010411CA43A1161704700000000060839
:10260000240200201CB5134813490860084601F055
:10261000BBFF08B106F03CFE00BF02200190002085
:102620000090002269460C4801F081FF08B106F0D5
:102630002FFE00BF0021084801F0FCFF08B106F0A2
:1026400027FE00BF00231A461946034801F0DCFFAD
:102650001CBD0000007400400801002010B52DEDE5
:102660000C8B80480078B0B3012804D0022833D006
:1026700003287CD1E3E07B49C88AFDF773FF41EC76
:102680001B0B7849088AFDF76DFF41EC1D0B9FED90
:10269000760B53EC102BFDF773FE41EC1C0B53EC47
:1026A0001B2BFDF7DFFE41EC1A0B9FED710B53EC7A
:1026B000102BFDF765FE41EC190B9FED6F0B53ECF2
:1026C000102BFDF757FE41EC180BFDF777FF65491E
:1026D000A1F8F209B9E001E000BFB6E06149C8899C
:1026E000FDF740FF41EC1B0B5E490889FDF73AFFFF
:1026F00041EC1D0B9FED5C0B53EC102BFDF740FEE6
:1027000041EC1C0B53EC1B2BFDF7ACFE41EC1A0B00
:102710009FED5B0B53EC102BFDF732FE41EC190BD8
:102720009FED590B53EC102BFDF724FE41EC180BD9
:10273000FDF744FF4B49A1F8F209B1F8F219881EE0
:10274000FDF7FFFE41EC180B4649B1F9CA04FDF74D
:10275000F8FE41EC190B53EC182BFDF761FF1CD868
:102760004049B1F8F219881CFDF7EBFE00E06BE080
:1027700041EC180B3B49B1F9CA04FDF7E2FE41EC0C
:10278000190B53EC182BFDF733FF06D83548B0F87A
:10279000F2093449A1F8F20950E03249B1F8F219CE
:1027A000881EFDF7CEFE41EC180B2E49B1F9CA0484
:1027B000FDF7C7FE41EC190B53EC182BFDF718FF82
:1027C00014D22848B0F8F209C01C40F6FF718842C4
:1027D00004DB08462349A1F8F2092FE02148B0F8AC
:1027E000F209C01C1F49A1F8F20927E01D49B1F800
:1027F000F219881CFDF7A5FE41EC180B1949B1F937
:10280000CA04FDF79EFE41EC190B53EC182BFDF7A3
:1028100007FF12D21348B0F8F209C01E002807D4EF
:102820001048B0F8F209C01E0E49A1F8F20905E0FF
:1028300000200C49A1F8F20900E000BF05E00020EB
:102840000849A1F8F20900E000BF00BF0548B0F850
:10285000F239002211460E4801F0D6FEBDEC0C8B79
:1028600010BD0000BC0800200000000000FEAF40CA
:10287000F54A598638D6EF3FD027F224E99AE03F4F
:10288000D00F2384479BF23F5DA79196CADBC93FD7
:102890000801002010B50249886B01F041FF10BD0E
:1028A000C400002030B50468246824F4802405683E
:1028B0002C60046863608468402C04D10468A260C2
:1028C0000468E16003E00468A1600468E26030BD70
:1028D00010B52DED088BFE4890F8A00081287DDA18
:1028E000FB48B0F8AA1090F8A020AA3020F81210E7
:1028F000AA38D0F8AC1190F8A020AA3030F9120014
:102900000144F348C0F8AC11B0F8B21190F8A0201F
:1029100000F5D97020F81210ED48D0F8B41290F8F4
:10292000A02000F5D97030F912000144E848C0F841
:10293000B412B0F8BA1290F8A02000F2BA2020F831
:102940001210E348D0F8BC1390F8A02000F2BA208F
:1029500030F912000144DE48C0F8BC13B0F8C213CD
:1029600090F8A02000F2C23020F81210D848D0F819
:10297000C41490F8A02000F2C23030F912000144D3
:10298000D348C0F8C414B0F8CA1490F8A02000F2DC
:10299000CA4020F81210CE48D0F8CC1590F8A020EC
:1029A00000F2CA4030F912000144C948C0F8CC1501
:1029B000B0F8D21590F8A02000F2D25020F81210F2
:1029C000C348D0F8D41690F8A02000F2D25030F9C5
:1029D00012000144BE48C0F8D41600E03FE0B0F851
:1029E000DA1690F8A02000F2DA6020F81210B84849
:1029F000D0F8DC1790F8A02000F2DA6030F912006D
:102A00000144B348C0F8DC17B0F8E21790F8A020F2
:102A100000F2E27020F81210AD48D0F8E41890F8F7
:102A2000A02000F2E27030F912000144A848C0F87A
:102A3000E418B0F8EA1890F8A02000F6EA0020F8B0
:102A40001210A348D0F8EC1990F8A02000F6EA0084
:102A500030F9120001449E48C0F8EC19CFE19D48BE
:102A6000007800287DD19A49D1F8AC11C809FDF74A
:102A700079FD41EC1B0B9FED980B53EC102BFDF7F0
:102A80007FFC41EC1A0B9FED960B53EC102BFDF7DE
:102A900071FC41EC190B9FED940B53EC102BFDF7DF
:102AA000E1FC41EC180BFDF76AFD00B28849A1F882
:102AB000A800D1F8B412C809FDF754FD41EC1B0B76
:102AC0009FED850B53EC102BFDF75AFC41EC1A0BD4
:102AD0009FED830B53EC102BFDF74CFC41EC190BD5
:102AE0009FED810B53EC102BFDF7BCFC41EC180B58
:102AF000FDF745FD01B27648A0F8B0110146D1F8C6
:102B0000BC13C809FDF72EFD41EC1B0B9FED720BAA
:102B100053EC102BFDF734FC41EC1A0B9FED700BBE
:102B200053EC102BFDF726FC41EC190B9FED6E0BBF
:102B300053EC102BFDF796FC41EC180BFDF71FFD35
:102B400001B26348A0F8B8120146D1F8C414C8090C
:102B5000FDF708FD41EC1B0B9FED5F0B53EC102BB9
:102B600000E0DAE0FDF70CFC41EC1A0B9FED5C0B8A
:102B700053EC102BFDF7FEFB41EC190B9FED5A0BAC
:102B800053EC102BFDF76EFC41EC180BFDF7F7FC36
:102B900001B24F48A0F8C0130146C889FDF7E2FC16
:102BA00041EC1B0B9FED520B53EC102BFDF75AFC25
:102BB00041EC190B4649D1F8CC15C809FDF7D2FCF8
:102BC00041EC1A0B53EC192BFDF7DAFB41EC180B17
:102BD000FDF7D5FC00B23E49A1F8C804D1F8D416DF
:102BE000C809FDF7BFFC41EC1A0B9FED430B53ECFA
:102BF000102BFDF7C5FB41EC190B9FED410B53EC7E
:102C0000102BFDF7BDFB41EC180BFDF7B8FC00B233
:102C10002F49A1F8D005D1F8DC17C809FDF7A2FCAF
:102C200041EC1A0B9FED340B53EC102BFDF7A8FB76
:102C300041EC190B9FED320B53EC102BFDF7A0FB71
:102C400041EC180BFDF79BFC01B22148A0F8D81607
:102C50000146D1F8E418C809FDF784FC41EC1A0BD1
:102C60009FED250B53EC102BFDF78AFB41EC190B64
:102C70009FED230B53EC102BFDF782FB41EC180B5F
:102C8000FDF77DFC01B21248A0F8E0170146D1F82B
:102C9000EC19C809FDF766FC41EC1A0B9FED160B09
:102CA00053EC102BFDF76CFB41EC190B9FED140B53
:102CB00053EC102BFDF764FB41EC180BFDF75FFCA8
:102CC00001B20348A0F8E818B0F8E0171CE00000D3
:102CD000BC08002009000020F0A7C64B3789E33F5D
:102CE00000000000006C9340000000000000004065
:102CF0000000000000FEAF40000000000000244083
:102D00001FE8811EE8819E3FB0F8E80808443D496D
:102D1000A1F8A600FFF76CFB71E03A48D0F8AC01CF
:102D2000C00900B23749A1F8A8000846D0F8B4029B
:102D3000C00901B23348A0F8B011D0F8BC03C009F3
:102D400001B23048A0F8B812D0F8C404C00901B2EA
:102D50002C48A0F8C013D0F8CC05C00900B229490E
:102D6000A1F8C8040846D0F8D406C00900B2A1F8FA
:102D7000D0050846D0F8DC07C00901B22148A0F808
:102D8000D8160146D1F8E418C809FDF7EBFB41EC71
:102D90001A0B1FED270B53EC102BFDF7F1FA41EC4A
:102DA000190B1FED290B53EC102BFDF7E9FA41EC41
:102DB000180BFDF7E4FB01B21248A0F8E01701463A
:102DC000D1F8EC19C809FDF7CDFB41EC1A0B1FED4A
:102DD000360B53EC102BFDF7D3FA41EC190B1FED1A
:102DE000380B53EC102BFDF7CBFA41EC180BFDF729
:102DF000C6FB01B20348A0F8E818FFF7F9FABDECEA
:102E0000088B10BDBC08002001460D48007808B9A9
:102E1000002070470B480078401C0A4A107010468A
:102E20000078FF2801D10020107006480078086063
:102E300003480078401E024A10700120E9E70000B4
:102E40009B0000209900002000BFFEE710B5002283
:102E500001B909E0012901D10A0205E0022901D1E5
:102E60000A0201E04FF44072114B1B6823F44073D7
:102E70000F4C236023461B681343236023461B68C3
:102E800023F0F803236023461B68F82494FAA4F483
:102E9000B4FA84F400FA04F444F002042343044C2A
:102EA000236023461B6843F48033236010BD000079
:102EB000103C024010B5024600200A4B1B6823F468
:102EC0004073084C236023461B680343236023465A
:102ED0001B6843F00403236023461B6843F48033DC
:102EE000236010BD103C0240074A126822F4407271
:102EF000054B1A601A4612681A601A46126842F0A8
:102F000001021A6001707047103C024010B5094977
:102F1000096821F44071074C21602146096841F499
:102F2000407121602146096841F001012160026081
:102F3000436010BD103C0240084A126822F44072FF
:102F4000064B1A601A46126842F480721A601A46DA
:102F5000126842F001021A6001807047103C024082
:102F6000084A126822F44072064B1A601A46126828
:102F700042F400721A601A46126842F001021A60A6
:102F800001607047103C02402148006800F01000CA
:102F900028B12048C06940F010001E49C8611C4893
:102FA000006800F0200028B11A48C06940F008000D
:102FB0001849C8611648006800F0400028B115485B
:102FC000C06940F004001349C8611148006800F06E
:102FD000800028B10F48C06940F002000D49C86167
:102FE0000B48006800F4807028B10A48C06940F0BE
:102FF00001000849C8610648006800F0020028B1D5
:103000000448C06940F020000249C86170470000D0
:103010000C3C0240A400002070B5044600250020AE
:103020001049C86104F0F8F8054609E0601C38B1A1
:1030300024B104F0F1F8401BA04201D9032070BD77
:103040000948006800F480300028EFD10648006885
:1030500000F4F97018B1FFF797FF0120EFE70020A7
:10306000EDE70000A40000200C3C024000B587B052
:1030700000BF2C48006840F080002A4908600846DC
:10308000006800F08000019000BF00BF00BF08464C
:10309000006840F0040008600846006800F0040082
:1030A000019000BF00BF00BF0846006840F002006A
:1030B00008600846006800F00200019000BF00BFF1
:1030C00000BF0846006840F001000860084600683C
:1030D00000F00100019000BF00BF012002900390AA
:1030E00002900220059002A90F4803F08DFF47F2DD
:1030F000024002900020039002900220059002A955
:10310000094803F081FF4FF40F5002900120039013
:10311000002004900220059002A9044803F074FFE7
:1031200007B000BD303802400004024000080240F1
:1031300010B500220121074804F068F8012240215F
:10314000054804F063F800200449A1F86A00C86645
:10315000086210BD0004024000080240BC080020C4
:1031600010B58548007800284FD183480078401C6E
:10317000814908700221814804F03CF8012806D1F9
:103180007F48008840F004007D49088000E000BFCF
:103190004FF48061794804F02DF8012806D1784871
:1031A000008840F480607649088000E000BF4FF45A
:1031B0008051724804F01EF8012806D1704800883A
:1031C00040F480706E49088000E000BF4FF4005169
:1031D0006A4804F00FF8012806D16948008840F4D5
:1031E00080706749088000E000BF4FF48041634869
:1031F00004F000F8012806D16148008840F0020080
:103200005F490880B6E000BFB4E05B480078002862
:10321000F8DD0020584908700221584803F0EAFF01
:1032200001280DD156480078C0F3800040B15548C0
:10323000B0F86A0040F004005249A1F86A000DE0BD
:103240005048B0F86A0020F004004E49A1F86A0026
:103250004B48008820F00400494908804FF4806101
:10326000464803F0C7FF01280DD145480088C0F348
:10327000802040B14348B0F86A0040F48060414982
:10328000A1F86A000DE03F48B0F86A0020F48060C1
:103290003C49A1F86A003A48008820F48060384927
:1032A00008804FF48051354803F0A4FF01280DD168
:1032B00033480088C0F3002040B13248B0F86A00BB
:1032C00040F480702F49A1F86A000DE02D48B0F855
:1032D0006A0020F480702B49A1F86A002848008811
:1032E00020F48070264908804FF40051234803F0F1
:1032F00081FF01280DD122480088C0F3002040B191
:103300002048B0F86A0040F480701E49A1F86A00B5
:103310000DE01C48B0F86A0020F480701949A1F84B
:103320006A001748008820F48070154908804FF41F
:103330008041124803F05EFF01280DD1104800784B
:10334000C0F3400040B10F48B0F86A0040F00200FE
:103350000C49A1F86A000DE00A48B0F86A0020F0B4
:1033600002000849A1F86A000548008820F0020020
:103370000349088010BD00006000002000040240E6
:1033800062000020BC0800200146002040F211121B
:10339000C2EBC203B1EB430F03DDB1F5805F00DA8E
:1033A00036E0C2EBC2038B4204DAB1EBC20F01DCA0
:1033B00001202DE0B1EBC20F05DD02EBC2038B4211
:1033C00001DB022024E002EB8203B1EB430F07DDB7
:1033D00002EB420303EBC2038B4201DB032017E045
:1033E00002EB4203B1EB830F07DD02EB820303EB39
:1033F000C2038B4201DB04200AE002EB820303EBF1
:10340000C2038B4203DA0E2901DC052000E0FA201A
:10341000704700001CB5002400200190009000BF00
:1034200040E05D4890F82400204100F0010098B38E
:10343000204604F009FF78BBBDF8040070B904EB26
:1034400044115548A83030F83100019004EB441184
:103450005148A83030F83100009021E0BDF9040057
:1034600000281ADD04EB44114B48A83030F9310034
:10347000BDF90410884207DA04EB44114648A8302D
:1034800030F8310001900BE004EB44114248A830C1
:1034900030F83100009003E001E000BF00E000BF21
:1034A000601CC4B2042CBCDB3B480078022868D105
:1034B000BDF9040005F064FEA0B13748B0F8F20988
:1034C0002D30B0F5805F05DB40F6FF703249A1F882
:1034D000F20957E03048B0F8F2092D302E49A1F832
:1034E000F2094FE02C48B0F906000A38BDF9041083
:1034F00088420EDA2848B0F906000A30BDF90410F7
:10350000884206DD2448B0F8F2092349A1F8F209FF
:1035100038E02148B0F906000A38BDF904108842A5
:1035200013DD1D48B0F8F20940F6FF71884204DB54
:1035300008461949A1F8F20924E01748B0F8F20941
:103540000A301549A1F8F2091CE01348B0F9060049
:103550000A30BDF90410884211DA0F48B0F8F209B8
:10356000012804DA00200C49A1F8F2090AE00A480F
:10357000B0F8F2090A380849A1F8F20902E000BFE0
:1035800000E000BF0448B0F8F239002211460348B9
:1035900001F03AF81CBD0000BC0800200801002022
:1035A000014600201C4A914203D2B1F1006F00D3C2
:1035B00030E01A4A914204D2174A914201D30120C5
:1035C00028E0174A914204D2144A914201D30220C2
:1035D00020E0144A914204D2114A914201D30320BF
:1035E00018E0114A914204D20E4A914201D30420BC
:1035F00010E00E4A914204D20B4A914201D30520B9
:1036000008E00B4A914204D2084A914201D30620B5
:1036100000E007207047000000400008008000081C
:1036200000C00008000001080000020800000408B3
:10363000000006087047000018B502460020009000
:1036400000BF92F83C00012801D1022018BD0120E2
:1036500082F83C0000BF0868092816D91068C068C5
:103660000B780A3B03EB43040723A34098431368FA
:10367000D8600B780A3B03EB4303886898401368D3
:10368000DB6818431368D86013E0106800690B7892
:1036900003EB43040723A3409843136818610B7896
:1036A00003EB43038868984013681B691843136849
:1036B00018614868072817D21068406B0B795B1EA9
:1036C00003EB83041F23A3409843136858630888BF
:1036D00080B20B795B1E03EB8303984013685B6B2E
:1036E00018431368586331E048680D2817D21068F2
:1036F000006B0B79DB1F03EB83041F23A34098436C
:1037000013681863088880B20B79DB1F03EB83030F
:10371000984013681B6B18431368186316E0106811
:10372000C06A0B790D3B03EB83041F23A34098432E
:103730001368D862088880B20B790D3B03EB8303D2
:1037400098401368DB6A18431368D8621C4B1068F2
:10375000984208D10868122805D11A48006840F438
:103760008000C3F80403164B1068984220D1164B12
:103770000868984202D00868112819D111480068D9
:1037800040F400000F4B18600F4B086898420FD1AF
:103790000E4800680E4BB0FBF3F000EB80004000D9
:1037A000009002E00098401E009000980028F9D197
:1037B00000BF002082F83C0000BF00BF46E70000C9
:1037C00000200140042301401200001020000020CE
:1037D00040420F00014640480088404AA2F8A40039
:1037E000104690F8A300401C82F8A3003A48408895
:1037F00002B23A48A0F8AA203748808802B2374877
:10380000A0F8B2213448C08802B23448A0F8BA22E5
:103810003148008902B23148A0F8C223304800780C
:10382000022803D02E48007803280CD12A4840896A
:1038300002B22A48A0F8D2252748808902B2274838
:10384000A0F8DA262FE024484089B0F5D57F0ED9BC
:103850002148408902B22148A0F8D225B0F8D2050B
:10386000A0F5D57002B21D48A0F8D22503E00022D1
:103870001A48A0F8D22518488089B0F5D57F0ED90E
:103880001548808902B21548A0F8DA26B0F8DA06A1
:10389000A0F5D57002B21148A0F8DA2603E00022A4
:1038A0000E48A0F8DA260C48C08902B20B48A0F8EE
:1038B000CA240948008A094A82F8A1000648408AB9
:1038C00002B20648A0F8E2270348808A02B2034801
:1038D000A0F8EA2870470000A8010020BC080020DA
:1038E0000900002070470446204600F0ADF905F0BD
:1038F000CFFC70B504460025002620680068C0F3A0
:10390000400520684068C0F34016002D3ED0002ED0
:103910003CD094F83D00252803D1352084F83D00A3
:1039200002E0152084F83D00A06940BB2068806853
:1039300000F0405018BB606960B92068406820F012
:103940002000216848602068406820F0806021687D
:10395000486014E0606B08B9206A6063606B401EC9
:103960006063606B58B92068406820F020002168CF
:1039700048602068406820F08060216848602046E8
:10398000FFF728FF6FF002002168086020680068D8
:10399000C0F3800520684068C0F3C01655B34EB32D
:1039A00094F83D00152803D1352084F83D0002E04D
:1039B000252084F83D0020684068012121EA9025F7
:1039C0002068806800F4401008B9012000E0002061
:1039D0000646A06900B135B12EB12068406820F0DC
:1039E0008000216848602046FFF724FE6FF0040045
:1039F000216808602068006800F0010520684068C0
:103A0000C0F3801655B14EB1062084F83D006FF02A
:103A1000010021680860204600F042F82068006834
:103A2000C0F3401520684068C0F3806675B16EB180
:103A3000042084F83D00206C40F0010020646FF009
:103A40002000216808602046FFF74DFF70BD000090
:103A500010B504460CB9012010BD1049E06A884237
:103A600000D000BF94F83D0028B9002084F83C0045
:103A7000204600F017F8022084F83D002046FCF7AD
:103A800081FF00202064012084F83D0000BF002059
:103A900084F83C0000BF00BFDEE700000100000F1B
:103AA0007047000010B586B0044600BF2D4800687E
:103AB00040F480702B4908600846006800F480706C
:103AC000009000BF00BF00BF26481438006840F4D3
:103AD00080002449143908600846006800F480001A
:103AE000009000BF00BF3F20019003200290002003
:103AF000039001A91C4803F087FACE20019003200F
:103B000002900020039001A9184803F07DFA18489C
:103B10001849086000204860002116488160C16093
:103B20004FF480610161C900416189108161C91050
:103B3000C16100210162416203F00EF910B105F08C
:103B4000A7FB00E000BF00BF0A48A063846300BF7A
:103B500000220221382003F0B8FB382003F0A8FB34
:103B600006B010BD44380240000802400000024088
:103B7000106402401C010020F8B504460D461646AC
:103B80000020009000BF94F83C00012801D10220E1
:103B9000F8BD012084F83C0000BF2068406840F078
:103BA0008060216848602068806840F480702168E7
:103BB00088602048A16BC8631F48A16B08641F4838
:103BC000A16B8864226802F14C0133462A46A06B3F
:103BD00003F000F9122084F83D0000BF002084F8B3
:103BE0003C0000BF2068806800F00100A0B9206898
:103BF000806840F001002168886011480068114920
:103C0000B0FBF1F000EB4000009002E00098401E95
:103C1000009000980028F9D12068806800F040509A
:103C200028B92068806840F08040216888600020C2
:103C3000AEE70000250900086509000849090008E9
:103C40002000002040420F0010B504462068806824
:103C500020F00100216888602068406820F08060C2
:103C6000216848602068806820F48070216888603E
:103C7000A06B00F025FD012084F83D00002010BD60
:103C800030B5034600220C7D012000FA04F24648BC
:103C9000006840F00100444C20602046006820F499
:103CA0007C502060204600684C6A40EA04203E4C6C
:103CB00020603D481C30006890433B4C1C34206021
:103CC000C869D8B938480C3000689043364C0C3479
:103CD0002060888880B28C8940EA044432484030B1
:103CE0004D6940F83540088880B20C8940EA0444A8
:103CF0002D4840304D6900EBC5004460C86901287B
:103D00001BD129480C3000681043274C0C3420602C
:103D1000888880B20C8840EA0444234840304D69CA
:103D200040F83540888980B20C8940EA04441E4836
:103D300040304D6900EBC5004460886938B91A48C5
:103D4000001D00689043184C241D206006E01648B2
:103D5000001D00681043144C241D2060086930B910
:103D600011481430006890430F4C143420600869E7
:103D7000012806D10C481430006810430A4C143452
:103D80002060086A012806D107481C3000681043EB
:103D9000054C1C3420600448006820F00100024CEF
:103DA0002060002030BD0000006600407047000029
:103DB0002DE9F041044600250026002720684069CF
:103DC00000F0010018B3206880686D4908408842FF
:103DD00001D1012000E00020054620688068694983
:103DE0000840884201D1012000E0002006462068FA
:103DF000806865490840884201D1012000E0002028
:103E000007460DB906B917B12046FEF735F9206807
:103E1000C06800F0030520684069C0F3400625B182
:103E20001EB100212046FEF737F82068006900F037
:103E3000030520684069C0F3001625B11EB10121B9
:103E40002046FEF729F82068806900F00105206807
:103E50004069C0F3002620684069C0F3C0374DB107
:103E600046B13FB1E06B40F00100E0636FF001004C
:103E70002168886120688069C0F340052068406936
:103E8000C0F3402620684069C0F3C0374DB146B149
:103E90003FB1E06B40F00200E0636FF00200216888
:103EA000886120688069C0F3800520684069C0F39C
:103EB000802620684069C0F3C0374DB146B13FB19C
:103EC000E06B40F00400E0636FF00400216888615B
:103ED0002068806900F0700008B9012000E000202F
:103EE000054620684069C0F3C02620684069C0F3D9
:103EF000C03795BB8EB387B32068806900F070052A
:103F0000402D1BD006DC102D09D0202D0CD0302DDB
:103F100024D10EE0502D16D0602D1FD118E0E06B9B
:103F200040F00800E0631AE0E06B40F01000E0634E
:103F300015E0E06B40F02000E06310E0E06B40F043
:103F40004000E0630BE0E06B40F08000E06306E0DF
:103F5000E06B40F48070E06301E007E000BF00BF69
:103F60002068806920F0700021688861E06B28B1CA
:103F7000012084F838002046FFF718FFBDE8F081E3
:103F800003000004000300080000031070B504469D
:103F9000032600250CB9012070BD94F8380028B91B
:103FA000002084F83900204600F0D0F8022084F880
:103FB00038002068006820F002002168086020684E
:103FC000006840F001002168086003F025F905460B
:103FD0000EE003F021F9401B0A2809D9032084F8D8
:103FE000380000BF002084F8390000BF0320D3E769
:103FF0002068406800F001000028EAD0206840688E
:1040000000F0010008B9002692E0A069012806D15D
:104010002068006840F080002168086005E02068A2
:10402000006820F0800021680860E069012806D15E
:104030002068006840F040002168086005E02068C2
:10404000006820F0400021680860206A012806D13D
:104050002068006840F020002168086005E02068C2
:10406000006820F0200021680860606A012806D1FD
:104070002068006840F010002168086005E02068B2
:10408000006820F0100021680860A06A012806D1AD
:104090002068006840F008002168086005E020689A
:1040A000006820F0080021680860E06A012806D155
:1040B0002068006840F004002168086005E020687E
:1040C000006820F0040021680860D4E90201084378
:1040D00021690843616908436168491E08432168F2
:1040E000C8612068006820F001002168086003F0C2
:1040F00093F805460EE003F08FF8401B0A2809D913
:10410000032084F8380000BF002084F8390000BF85
:10411000032041E72068406800F001000028EAD150
:104120002068406800F0010008B1002600E0012688
:10413000012E06D10020E063012084F83800002021
:104140002AE7042084F83800012025E710B586B05E
:10415000044600BF2048006840F000701E49086017
:104160000846006800F00070009000BF00BF00BF6C
:1041700019481038006840F00200174910390860EB
:104180000846006800F00200009000BF00BF48151C
:1041900001900220029004900120039009200590D4
:1041A00001A90E4802F030FF4FF480700190022008
:1041B00002900490012003900920059001A907486E
:1041C00002F022FF00220121142003F07EF81420C7
:1041D00003F06EF806B010BD403802400004024003
:1041E00010B50246002392F83830012B01D0122B73
:1041F00049D100BF92F83900012801D1022010BD39
:10420000012082F8390000BF92F83800122803D14B
:10421000322082F8380002E0222082F838000020A4
:10422000D0631068406940F4807014686061106861
:10423000406940F40070146860611068406940F49F
:104240008060146860611068406940F40060146820
:1042500060611068406940F400401468606100BF0C
:10426000002082F8390000BF31B91068406940F081
:1042700002001468606108E01068406940F01000B6
:104280001468606101E00220B9E70020B7E77CB55F
:10429000054600212846FFF7A3FF08B1FDF7A0FF60
:1042A000002000900190002406E0686B1430005D4F
:1042B0000DF80400601C44B2082CF6DB696B0A7C24
:1042C00048686946FDF712FF7CBD00002DE9F0410A
:1042D00004460E460525002700BF94F83900012842
:1042E00002D10220BDE8F081012084F8390000BF2E
:1042F00094F83800222803D1322084F8380002E0F4
:10430000122084F838002068806800F08060B0F1E6
:10431000806F01D1002512E02068806800F0006005
:10432000B0F1006F01D1012509E02068806800F03C
:104330008050B0F1805F01D1022500E00425042DFA
:104340007ED0206800F5C07000EB0510006800F01A
:104350000101206800F5C07000EB05100160206BC2
:10436000806898B9206800F5C07000EB05100068FF
:10437000216BC968226B128841EA425108432168C7
:1043800001F5C07101EB0511086015E0206800F52A
:10439000C07000EB05100068216B8968226B5268C1
:1043A00041EAC201226BD26811430843216801F53A
:1043B000C07101EB05110860206B007C00F00F005C
:1043C000216B0861206800F5C07000EB05104068A3
:1043D00020F00F01206800F5C07000EB051041606F
:1043E000206800F5C07000EB05104068216B09697A
:1043F0000843216801F5C07101EB05114860206B8D
:10440000C07D0106206B807D41EA0041206B407D2C
:1044100041EA0021206B007D0143206800F5C07057
:1044200000EB05108160206BC07E0106206B807E52
:1044300041EA0041206B407E41EA0020216B00E010
:1044400063E0097E0843216801F5C07101EB0511A5
:10445000C860206800F5C07000EB0510006840F0EF
:104460000101206800F5C07000EB0510016002F04A
:10447000D3FE074611E0701C78B126B102F0CCFEE5
:10448000C01BB04209D9032084F8380000BF0020C7
:1044900084F8390000BF032024E74DB92068806804
:1044A0001F490840884201D1012016E0002014E095
:1044B000012D09D1206880681A490840884201D13D
:1044C00001200AE0002008E02068806816490840C2
:1044D000884201D1012000E000200028CBD094F8D0
:1044E0003800322807D1222084F8380000BF00208D
:1044F00084F8390007E0012084F8380000BF00206C
:1045000084F8390000BF0020ECE6042084F838006D
:1045100000BF002084F8390000BF0120E2E600005F
:10452000030000040003000800000310704770B58A
:1045300003460024002500BF5879012801D102203C
:1045400070BD0120587100BF0220187118680468FE
:1045500040F6FE7090408443D1E9000640EA06052B
:1045600005FA02F004431868046018680668C02061
:1045700090408643186806600120187100BF002033
:10458000587100BF00BFDBE710B504460CB901202D
:1045900010BD207920B900206071204600F008F895
:1045A0000220207100202061012020710020EFE70F
:1045B00010B586B0044611492068884219D100BF61
:1045C0000F48006840F000500D4908600846006838
:1045D00000F00050009000BF00BF102001900320A9
:1045E000029000200390049001A9064802F00CFDFF
:1045F00001E004F04DFE06B010BD00000074004064
:10460000403802400000024038B5044600200090C7
:104610002068009029B902F10800009D284400900C
:1046200004E002F11400009D28440090009803600B
:10463000002038BD30B502460023002400BF507969
:10464000012801D1022030BD0120507100BF02209D
:1046500010711068006801258D4028431568286096
:1046600091B91068006800F004031068006800F059
:104670003804042B1CD1382C1AD11068406840F043
:1046800001001568686013E01068006800F480237A
:104690001068006800F46014B3F5802F08D1B4F5F9
:1046A000601F05D11068406840F00200156868601E
:1046B0000120107100BF0020507100BF00BFC2E791
:1046C00070B5044600252068006820F001002168CC
:1046D000086002F0A1FD054612E002F09DFD401BBE
:1046E000B0F57A7F0CD9E06C40F02000E06400BFA8
:1046F000002084F8340000BF032084F8350070BD2A
:104700002068006800F001000028E6D100BF84F8AE
:10471000340000BF012084F835000020EFE70000DE
:1047200010B50446F949206888425DD9F7485438E5
:104730000068F74A2168914201D1082152E0F34A0A
:10474000483A2168914201D108214BE0F04A603299
:104750002168914201D1082144E0EC4A18322168D5
:10476000914201D108213DE0E94A18322168914285
:1047700001D1491536E0E54A303A2168914201D12C
:1047800049152FE0E24A78322168914201D149155A
:1047900028E0DE4A30322168914201D1491521E0FA
:1047A000DB4A30322168914202D14FF4002119E0F6
:1047B000D64A183A2168914202D14FF4002111E003
:1047C000D34A90322168914202D14FF4002109E08E
:1047D000CE4A48322168914202D14FF4002101E0D3
:1047E0004FF00071084022E1C949A8312068884291
:1047F0005DD9C64858380068C54A2168914201D140
:10480000082152E0C14A483A2168914201D1082169
:104810004BE0BF4A60322168914201D1082144E057
:10482000BA4A18322168914201D108213DE0B84AC4
:1048300018322168914201D1491536E0B34A303A25
:104840002168914201D149152FE0B14A783221689F
:10485000914201D1491528E0AC4A30322168914299
:1048600001D1491521E0AA4A30322168914202D192
:104870004FF4002119E0A54A183A2168914202D16B
:104880004FF4002111E0A24A90322168914202D1F6
:104890004FF4002109E09D4A48322168914202D13B
:1048A0004FF4002101E04FF000710840BFE098494B
:1048B0004831206888425DD9954810384068944A4C
:1048C0002168914201D1082152E0904A483A21687A
:1048D000914201D108214BE08D4A6032216891421A
:1048E00001D1082144E0894A18322168914201D15E
:1048F00008213DE0864A18322168914201D14915CC
:1049000036E0824A303A2168914201D149152FE0C0
:104910007F4A78322168914201D1491528E07B4ACB
:1049200030322168914201D1491521E0784A303274
:104930002168914202D14FF4002119E0734A183ADC
:104940002168914202D14FF4002111E0704A903267
:104950002168914202D14FF4002109E06B4A4832AC
:104960002168914202D14FF4002101E04FF0007123
:1049700008405CE0664810380068654A216891424A
:1049800001D1082152E0614A483A2168914201D19F
:1049900008214BE05E4A60322168914201D1082132
:1049A00044E05A4A18322168914201D108213DE081
:1049B000574A18322168914201D1491536E0534ACD
:1049C000303A2168914201D149152FE0504A78329E
:1049D0002168914201D1491528E04C4A30322168C2
:1049E000914201D1491521E0494A30322168914272
:1049F00002D14FF4002119E0444A183A216891424B
:104A000002D14FF4002111E0414A903221689142D5
:104A100002D14FF4002109E03C4A4832216891421A
:104A200002D14FF4002101E04FF00071084000284E
:104A300070D02068006800F004000028F8D02068DA
:104A4000006820F00400216808603049206888422E
:104A500061D92F492068884201D1082052E02B49B2
:104A600048392068884201D108204BE0284960314C
:104A70002068884201D1082044E024491831206888
:104A8000884201D108203DE0214918312068884240
:104A900001D1401536E01D4930392068884201D1E6
:104AA00040152FE01A4978312068884201D140151D
:104AB00028E0164930312068884201D1401521E0B4
:104AC000134930312068884202D14FF4002019E0A8
:104AD0000E4918392068884202D14FF4002011E0B5
:104AE0000B4990312068884202D14FF4002009E040
:104AF000064948312068884202D14FF4002001E085
:104B00004FF0007001494C39086023E158640240BD
:104B1000106002402FE1F849206888425CD9F649CC
:104B2000A8392068884201D1082051E0F349206863
:104B3000884201D108204BE0EF494839206888427B
:104B400001D1082044E0ED4960312068884201D15C
:104B500008203DE0E84990392068884201D140159D
:104B600036E0E64918312068884201D140152FE02F
:104B7000E14930392068884201D1401528E0DF49F9
:104B800078312068884201D1401521E0DA4978392E
:104B90002068884202D14FF4002019E0D749303113
:104BA0002068884202D14FF4002011E0D249183920
:104BB0002068884202D14FF4002009E0CF499031AB
:104BC0002068884202D14FF4002001E04FF00070CD
:104BD000CA4908390860BDE0C74960392068884281
:104BE0005CD9C549A8392068884201D1082051E024
:104BF000C2492068884201D108204BE0BE494839AB
:104C00002068884201D1082044E0BC496031206816
:104C1000884201D108203DE0B74990392068884298
:104C200001D1401536E0B54918312068884201D1DC
:104C300040152FE0B04930392068884201D1401535
:104C400028E0AE4978312068884201D1401521E042
:104C5000A94978392068884202D14FF4002019E030
:104C6000A64930312068884202D14FF4002011E07B
:104C7000A14918392068884202D14FF4002009E088
:104C80009E4990312068884202D14FF4002001E013
:104C90004FF000709849B839C8605BE09649A83970
:104CA0002068884201D1082051E094492068884258
:104CB00001D108204BE0904948392068884201D151
:104CC000082044E08D4960312068884201D10820E5
:104CD0003DE0894990392068884201D1401536E08D
:104CE000864918312068884201D140152FE0824959
:104CF00030392068884201D1401528E07F49783159
:104D00002068884201D1401521E07B49783920682C
:104D1000884202D14FF4002019E0784930312068F0
:104D2000884202D14FF4002011E0734918392068FD
:104D3000884202D14FF4002009E070499031206888
:104D4000884202D14FF4002001E04FF000706A4920
:104D5000B8398860E06C40F00100E064042084F819
:104D6000350000BF002084F8340000BFA06C10B1F3
:104D70002046A16C884761494831206888425DD946
:104D80005E480C3800685C4AA83A2168914201D11B
:104D90005B4951E0594A2168914201D158494BE0A1
:104DA000554A483A2168914201D1554944E0534A55
:104DB00060322168914201D151493DE04E4A903A1A
:104DC0002168914201D1402136E04C4A18322168D5
:104DD000914201D140212FE0474A303A2168914267
:104DE00001D1402128E0454A78322168914201D121
:104DF000402121E0404A783A2168914202D14FF4A3
:104E0000803119E03D4A30322168914202D14FF49D
:104E1000803111E0384A183A2168914202D14FF4AA
:104E2000803109E0354A90322168914202D14FF435
:104E3000803101E04FF48001084026E12E492068CE
:104E4000884263D92D48103800682B4AA83A216857
:104E5000914201D12A4957E0284A2168914201D163
:104E6000274951E0244A483A2168914201D1244916
:104E70004AE0224A60322168914201D1204943E050
:104E80001D4A903A2168914201D140213CE01B4AE1
:104E900018322168914201D1402135E0164A303A5A
:104EA0002168914201D140212EE0144A78322168D4
:104EB000914201D1402127E00F4A783A216891427E
:104EC00002D14FF480311FE00C4A30322168914208
:104ED00002D14FF4803117E0074A183A2168914215
:104EE00002D14FF480310FE0044A903221689142A0
:104EF00008D14FF4803107E0B860024010640240EE
:104F0000010080004FF480010840BEE0F9492068AC
:104F100088425DD9F74858384068F64A483A2168CF
:104F2000914201D1F44951E0F44A2168914201D102
:104F3000F1494BE0EF4A18322168914201D1EE4924
:104F400044E0EE4A60322168914201D1EA493DE0F5
:104F5000E84A303A2168914201D1402136E0E74ADF
:104F600018322168914201D140212FE0E14A3032CC
:104F70002168914201D1402128E0E04A783221683D
:104F8000914201D1402121E0DA4A183A2168914248
:104F900002D14FF4803119E0D84A30322168914271
:104FA00002D14FF4803111E0D24A48322168914257
:104FB00002D14FF4803109E0D04A90322168914209
:104FC00002D14FF4803101E04FF4800108405CE0F1
:104FD000C84858380068C74A483A2168914201D108
:104FE000C54951E0C54A2168914201D1C2494BE00F
:104FF000C04A18322168914201D1BF4944E0BF4AFA
:1050000060322168914201D1BB493DE0B94A303A52
:105010002168914201D1402136E0B84A1832216816
:10502000914201D140212FE0B24A303221689142B1
:1050300001D1402128E0B14A78322168914201D162
:10504000402121E0AB4A183A2168914202D14FF445
:10505000803119E0A94A30322168914202D14FF4DF
:10506000803111E0A34A48322168914202D14FF4C5
:10507000803109E0A14A90322168914202D14FF477
:10508000803101E04FF480010840002879D0206889
:10509000406900F08000002873D02068406920F04B
:1050A00080002168486195494831206888425CD970
:1050B000904948392068884201D18F4851E08F4992
:1050C0002068884201D18C484BE08A491831206819
:1050D000884201D1884844E088496031206888428C
:1050E00001D185483DE0834930392068884201D1AB
:1050F000402036E0814918312068884201D14020A3
:105100002FE07C4930312068884201D1402028E0DE
:105110007A4978312068884201D1402021E07549E0
:1051200018392068884202D14FF4803019E0734961
:1051300030312068884202D14FF4803011E06D494F
:1051400048312068884202D14FF4803009E06B4931
:1051500090312068884202D14FF4803001E04FF452
:1051600080006649091F086025E1624960312068B6
:1051700088425DD95F4948392068884202D15E483B
:1051800052E029E15D492068884201D15A484BE04C
:10519000584918312068884201D1574844E057499E
:1051A00060312068884201D153483DE0514930398F
:1051B0002068884201D1402036E0504918312068EB
:1051C000884201D140202FE04A493031206888428E
:1051D00001D1402028E0494978312068884201D136
:1051E000402021E0434918392068884202D14FF419
:1051F000803019E0414930312068884202D14FF4B3
:10520000803011E03B4948312068884202D14FF498
:10521000803009E0394990312068884202D14FF44A
:10522000803001E04FF48000344908390860C2E062
:1052300030492068884263D92E494839206888421D
:1052400001D12D4851E02D492068884201D12A48DA
:105250004BE0284918312068884201D1264844E0B3
:10526000264960312068884201D123483DE0214928
:1052700030392068884201D1402036E01F4918317A
:105280002068884201D140202FE01A49303120683F
:10529000884201D1402028E01849783120688842AE
:1052A00001D1402021E0134918392068884202D1F9
:1052B0004FF4803019E0114930312068884202D122
:1052C0004FF4803011E00B4948312068884202D108
:1052D0004FF4803009E0094990312068884202D1BA
:1052E0004FF4803001E04FF4800002495839C86023
:1052F00061E005E058600240010080001064024057
:10530000F9492068884201D1F84851E0F8492068FD
:10531000884201D1F5484BE0F3496031206888426A
:1053200001D1F24844E0F24960312068884201D15D
:10533000EE483DE0EC4918312068884201D1402018
:1053400036E0EB4918312068884201D140202FE037
:10535000E54978312068884201D1402028E0E449BD
:1053600078312068884201D1402021E0DE49303187
:105370002068884202D14FF4803019E0DC49303196
:105380002068884202D14FF4803011E0D649903134
:105390002068884202D14FF4803009E0D44990312E
:1053A0002068884202D14FF4803001E04FF4800041
:1053B000CD4910398860E06C40F00200E0640420C0
:1053C00084F8350000BF002084F8340000BFA06CD2
:1053D00010B12046A16C8847C549483120688842F1
:1053E00060D9C3480C380068BF4A2168914202D195
:1053F000BE49C91C54E0BE4A2168914202D1BB4952
:10540000C91C4DE0B84A60322168914202D1B749C7
:10541000C91C45E0B64A60322168914202D1B349C5
:10542000C91C3DE0B04A18322168914201D189156A
:1054300036E0AF4A18322168914201D189152FE038
:10544000A94A78322168914201D1891528E0A84AF9
:1054500078322168914201D1891521E0A24A303287
:105460002168914202D14FF4802119E0A04A3032E4
:105470002168914202D14FF4802111E09A4A903282
:105480002168914202D14FF4802109E0984A90327C
:105490002168914202D14FF4802101E04FF08071E8
:1054A000084031E19049A8312068884260D990488D
:1054B000103800688C4A2168914202D18B49C91C7E
:1054C00054E08B4A2168914202D18849C91C4DE0C1
:1054D000854A60322168914202D18449C91C45E065
:1054E000834A60322168914202D18049C91C3DE063
:1054F0007D4A18322168914201D1891536E07C4AF3
:1055000018322168914201D189152FE0764A78320C
:105510002168914201D1891528E0754A78322168C5
:10552000914201D1891521E06F4A303221689142C0
:1055300002D14FF4802119E06D4A30322168914246
:1055400002D14FF4802111E0674A903221689142E4
:1055500002D14FF4802109E0654A903221689142DE
:1055600002D14FF4802101E04FF080710840CBE080
:105570005D4948312068884260D95B4810384068EE
:10558000594A2168914202D15849C91C54E0584AED
:105590002168914202D15549C91C4DE0524A6032FE
:1055A0002168914202D15149C91C45E0504A6032FC
:1055B0002168914202D14D49C91C3DE04A4A183246
:1055C0002168914201D1891536E0494A1832216893
:1055D000914201D189152FE0434A783221689142E6
:1055E00001D1891528E0424A78322168914201D1DF
:1055F000891521E03C4A30322168914202D14FF4B2
:10560000802119E03A4A30322168914202D14FF4A8
:10561000802111E0344A90322168914202D14FF446
:10562000802109E0324A90322168914202D14FF440
:10563000802101E04FF08071084065E02A48103871
:105640000068294A2168914202D12849C91C5AE0C0
:10565000274A2168914202D12449C91C53E0224AB9
:1056600060322168914202D12049C91C4BE0204A96
:1056700060322168914202D11C49C91C43E01A4A98
:1056800018322168914201D189153CE0184A18323C
:105690002168914201D1891535E0134A7832216899
:1056A000914201D189152EE0114A78322168914248
:1056B00001D1891527E00C4A30322168914202D18C
:1056C0004FF480211FE00A4A30322168914202D112
:1056D0004FF4802117E0044A90322168914209D1A9
:1056E0004FF480210FE000001060024001008000B4
:1056F00010640240FA4A2168914202D14FF480219D
:1057000001E04FF08071084088B32068006800F025
:10571000020060B32068006820F002002168086081
:10572000EF494839206888425CD9EE4920688842B0
:1057300001D1ED4852E0EA4990392068884201D110
:10574000E9484BE0E74960312068884201D1E648EA
:1057500044E0E34930392068884201D1E2483DE025
:10576000E04918312068884202D1801536E067E1AF
:10577000DB4978392068884201D180152EE0D9496B
:1057800078312068884201D1801527E0D449183942
:105790002068884201D1801520E0D249303120684C
:1057A000884202D14FF4802018E0CD49603920684A
:1057B000884202D14FF4802010E0CA49903120681D
:1057C000884202D14FF4802008E0C5492068884211
:1057D00002D14FF4802001E04FF08070C04994392D
:1057E00008601CE1BF49A831206888425BD9BD49E7
:1057F0002068884201D1BC4851E0B94990392068FD
:10580000884201D1B8484AE0B649603120688842F0
:1058100001D1B54843E0B24930392068884201D10E
:10582000B1483CE0AF4918312068884201D1801569
:1058300035E0AB4978392068884201D180152EE0E7
:10584000A84978312068884201D1801527E0A44911
:1058500018392068884201D1801520E0A1493031F3
:105860002068884202D14FF4802018E09C496039BA
:105870002068884202D14FF4802010E0994990318D
:105880002068884202D14FF4802008E094492068C3
:10589000884202D14FF4802001E04FF0807090499F
:1058A00098390860BBE08F494831206888425BD94D
:1058B0008C492068884201D18B4851E08849903951
:1058C0002068884201D188484AE0864960312068D2
:1058D000884201D1844843E08149303920688842B8
:1058E00001D181483CE07F4918312068884201D1CC
:1058F000801535E07A4978392068884201D18015D1
:105900002EE0784978312068884201D1801527E05F
:10591000734918392068884201D1801520E0714907
:1059200030312068884202D14FF4802018E06C4961
:1059300060392068884202D14FF4802010E0694924
:1059400090312068884202D14FF4802008E06449F9
:105950002068884202D14FF4802001E04FF080702F
:1059600060491039C8605AE05E492068884201D118
:105970005D4851E05A4990392068884201D15A481F
:105980004AE0584960312068884201D1564843E0D6
:10599000534930392068884201D153483CE051498D
:1059A00018312068884201D1801535E04C4978399A
:1059B0002068884201D180152EE04A49783120685C
:1059C000884201D1801527E045491839206888426E
:1059D00001D1801520E0434930312068884202D14E
:1059E0004FF4802018E03E4960392068884202D197
:1059F0004FF4802010E03B4990312068884202D16A
:105A00004FF4802008E036492068884202D14FF4E4
:105A1000802001E04FF08070324910398860E06CDE
:105A200040F00400E064042084F8350000BF00204A
:105A300084F8340000BFA06C10B12046A16C8847E8
:105A4000274948392068884262D925489C3800682F
:105A5000244A2168914201D1102157E0204A903A0E
:105A60002168914201D1102150E01E4A6032216824
:105A7000914201D1102149E0194A303A21689142FE
:105A800001D1102142E0174A18322168914201D118
:105A900009153BE0124A783A2168914201D1091573
:105AA00034E0104A78322168914201D109152DE085
:105AB0000B4A183A2168914201D1091526E0094A9A
:105AC00030322168914202D14FF480111EE0044A25
:105AD000603A2168914209D14FF4801116E000002C
