:020000040800F2
:1000000000150020A1650008A9650008AB6500087F
:10001000AD650008AF650008B1650008000000008C
:1000200000000000000000000000000015020008B1
:10003000B565000800000000B502000819030008BB
:10004000BB650008BB650008BB650008BB65000810
:10005000BB650008BB650008BB650008BB65000800
:10006000BB650008BB650008BB650008BB650008F0
:10007000BB650008BB650008BB650008BB650008E0
:10008000BB650008BB650008BB650008DF0A000807
:100090002B0B0008BB650008BB650008BB650008AA
:1000A000BB650008BB650008BB650008BB650008B0
:1000B000BB650008BB650008BB650008BB650008A0
:1000C000BB650008BB650008BB650008BB65000890
:1000D000BB650008BB650008BB650008BB65000880
:1000E000BB650008BB650008BB650008BB65000870
:1000F000BB650008BB650008BB650008BB65000860
:10010000BB650008BB650008BB650008BB6500084F
:10011000BB650008BB650008BB650008BB6500083F
:10012000BB650008BB650008BB650008BB6500082F
:10013000BB650008BB650008BB6500086D0B0008C7
:10014000B90B0008BB650008BB650008BB6500086B
:10015000BB650008BB650008BB650008BB650008FF
:10016000BB650008BB650008BB650008BB650008EF
:10017000BB650008BB650008BB6500080000000007
:10018000BB650008BB650008DFF81CD006F07EFAEE
:1001900006F076FB0021034806F054FC06F082FBD3
:1001A000FEE70000840000200015002080F309888D
:1001B0007047EFF309807047684680F30988044868
:1001C0000078C00714BF0220032080F31488704712
:1001D00088910008DFF818C0EFF305831B0618BFED
:1001E0006047EFF31483DB0708BF604700DF704709
:1001F000EF6A0008DFF818C0EFF305831B0618BF8D
:100200006047EFF31483DB0708BF604700DF7047E8
:10021000E96C0008EFF30980816911F8021C99BBB1
:1002200090E80F1010B5E047BDE81040EFF3098CDF
:100230008CE807001C4B93E80600914208BF70470A
:1002400081B11EF0100F06BF2CED108A0120002096
:1002500081F825002CE9F00FC1F828C00CB407F094
:10026000C3F80CBC1A60D2F828C0BCE8F00F92F8B2
:10027000250000281ABFBCEC108A6FF0120E6FF038
:10028000020E8CF30988704710B5084A1268914233
:1002900009D8074C54F8214090E80F10A047EFF31D
:1002A000098C8CE80F0010BDC0000020B06600086B
:1002B000B066000810B506F01FFFBDE81040154BF2
:1002C00093E80600914208BF7047EFF3098C1EF0D7
:1002D000100F06BF2CED108A0120002081F82500A8
:1002E0002CE9F00FC1F828C00CB407F07DF80CBC65
:1002F0001A60D2F828C0BCE8F00F92F82500002858
:100300001ABFBCEC108A6FF0120E6FF0020E8CF365
:1003100009887047C000002010B507F02DF9CCE720
:1003200010B506F0E3FB07F027F9C6E77A48006846
:1003300070477A4810B5016892B041F08051016071
:100340007748016841F4404101600120009001902C
:1003500002248005CDE90640192008904FF4A870CA
:10036000CDE9090407200B90684605F07EFA0D20C0
:10037000CDE90C0400200E904FF4A0500F90E00245
:10038000109005210CA805F002FC12B010BD30221F
:100390000A7078224A70634A02EB101300F00F00D3
:1003A0001B788B70105CC870704700F035BD10B5BD
:1003B00000F072FD00F085FDC0F3071010BD10B510
:1003C00000F0E2FD1F2001F01EF94FF6FF7001F072
:1003D00016F901F01CF9544801F030F9002153A23C
:1003E000084601F0E1F956A21821002001F0DCF9DD
:1003F00056A2D821002001F0D7F95AA2602100208E
:1004000001F0D2F9C021BDE810405CA2002001F04B
:10041000CBB938B5434C143C04F128012078257938
:10042000FFF7B5FFE8B204F13101FFF7B0FF04F1C7
:100430002402A821002001F0B7F920686421484374
:10044000FF21B0FBF1F0009014238C22C021A020EA
:1004500001F0BEF938BD1FB54E4A0FCA8DE80F0036
:100460004D49012000F0F2FB00232122022101204E
:1004700000F0C8FC4FF04041012000F063F901207A
:1004800000F02AFC274C4FF47065143CFFF78FFFF7
:100490008DF804002A466946012000F06DFC9DF8A5
:1004A00004002060642006F0DFF9EFE71FB51D4C63
:1004B000143CFF226946012000F08AFC0028F8D194
:1004C0009DF804006060F4E7FFF7A3FF0A2006F040
:1004D000CBF9F9E700F0A0FC01F0FCF9FFF729FFE8
:1004E000FFF76DFF2B480021303806F0ABFA0D4CBA
:1004F0000021143CA0602748203806F0A3FAE060F1
:1005000024480021103806F09DFA20614FF0FF309A
:1005100006F0AAF9FEE70000BC00002040380240C7
:10052000007000401400002068910008204D4342F4
:1005300053544D3332463430302044656D6F2000C3
:100540002043414E5F4578312000000020202020CC
:100550007777772E6B65696C2E636F6D2020202076
:10056000000000002043414E206174203530306B84
:100570006269742F73202020000000002041442075
:1005800076616C75653A20202020202020202020D4
:1005900000000000247C000820A10700FA4A10B5E2
:1005A000F949103A012803D0022855D0092010BD7E
:1005B000086840F000700860106840F4C070106077
:1005C000F248016821F040610160016841F000617A
:1005D0000160001D016821F400510160001D0168E7
:1005E00021F040610160001D016821F0406101605F
:1005F000E6482430016821F470010160016841F48B
:1006000010010160E248016821F4402101600168A5
:1006100041F400210160416821F40071416081686A
:1006200021F440218160C16821F44021C160416A08
:1006300021F0F0014162416A41F0900141620121E3
:10064000132000F0E5FA0121142000F0E1FA132054
:1006500000F0D3FA14203FE0086840F0C060086062
:10066000106840F002001060CA48016821F00C21B7
:100670000160016841F008210160001D016842F23B
:10068000200291430160001D016821F00C210160EE
:10069000001D016821F00C210160BE482030016876
:1006A00021F470010160016841F410010160001D36
:1006B000016821F470010160016841F410010160DA
:1006C00001213F2000F0A4FA0121402000F0A0FA0F
:1006D0003F2000F092FA402000F08FFA002010BD79
:1006E000AD4A012302EB800252F8040C0360436818
:1006F000DB07FCD003234361A848814212D8A848F5
:10070000B0FBF1F152F8040CC269A64B1A40C26169
:10071000A54A491EC1F309010A43C1690A43C261DE
:1007200000207047032070479B4901EB800050F880
:10073000040C016821F0010101604168C907FCD186
:1007400000207047944A02EB800050F8040CC26904
:1007500022F04042C261C26901F040410A43C261D5
:100760000020704770B58C4901EB800151F8044CB2
:100770008E4901EB8005002155F8040C06F056F96E
:10078000002808DDA068400101D5002070BD55F8A3
:10079000040C06F03FF9042070BD7F4A10B502EB4F
:1007A0008000002250F8040CC0F880218A7B002AC7
:1007B000D0F880210AD00B68042444EAC3031A430A
:1007C000C0F88021CA7B012A04D009E00B8842EAE4
:1007D0004352F5E7D0F8802142F00202C0F88021B0
:1007E0000A79D1F8053042EA0322C0F888210A7A52
:1007F000D1F8093042EA0322C0F88C21D0F88421D4
:1008000022F00F02C0F88421D0F88421097B01F086
:100810000F010A43C0F8842150F8141F41F0010170
:1008200040F8FC1B016F41F001010167002010BD81
:10083000594910B501EB800050F8040CD0F8B01104
:100840004FF001034C074FF0000104D49173D0F82E
:10085000B041640D03E09373D0F8B041E408146034
:10086000D0F8B041A40701D4D17300E0D373D0F81D
:10087000B41101F00F011173D0F8B8111171D0F853
:10088000B811090A5171D0F8B811090C9171D0F85A
:10089000B811090ED171D0F8BC111172D0F8BC1189
:1008A000090A5172D0F8BC11090C9172D0F8BC0140
:1008B000000ED07210BD0120704730B53648046874
:1008C000D4F81C0201238B40184222D0D4F80C52D9
:1008D00002F001001D4005432F48006800EBC100F5
:1008E0000AD0D4F80C12194204D0D10702D0D0F8A3
:1008F000440270B1002030BDD0F84012090C08D07D
:10090000D0F844120904090C03D0D0F84402000CBA
:10091000EFE7012030BDF0B51F4C2468D4F8005239
:1009200045F00105C4F80052D4F81C724FEA421693
:1009300003F0020C46EACC064CEAC20242F0040C78
:10094000154A01258D4012682F4202EBC101124A5F
:10095000A2F104022CD1DF074FF0000339D0D4F804
:1009600004622E43C4F80462D4F80C622E43C4F827
:100970000C62C1F840C200BFC1F84432012835D032
:100980005088401C508057E040380240001C024014
:1009900000200240000402403C00002040420F00C2
:1009A000808D5B0000FC80FC000013026C000020C6
:1009B000D4F80C0203F00107284038431AD0D4F8C9
:1009C0000C02284238D0D80736D0D1F8440280B380
:1009D00032E0D4F804722F43C4F80472D4F80C72D5
:1009E000AF43C4F80C72C1F84062C5E71088401CE0
:1009F000108021E0D1F84002000C09D0D1F8440267
:100A00000004000C0BD0D1F84402000C0AD013E013
:100A1000D1F8400240EA0640C1F840020CE0C1F8BB
:100A2000446209E0D1F8440240EA0640C1F84402B9
:100A300002E0FFE7C1F844C2D4F81402A843C4F8A6
:100A40001402D4F81C022843C4F81C02508828B1B0
:100A5000C0F11C000002C4F80002F0BD1B20F9E741
:100A60002DE9F0410646002471481F469046012EAC
:100A700002D0022E2FD112E0408818B1C0F11A0026
:100A800085B209E01B20FBE73A4621463046FFF7D6
:100A900014FF80B9641CA4B2AC42F5D316E0008800
:100AA00000B1401E85B21B240EE03A462146304676
:100AB000FFF703FF30B13B46424621463046FFF781
:100AC0002AFF03E0641EA4B2AC42EED8AC4202D0CE
:100AD0000020BDE8F0810520FBE701207047554864
:100AE00010B50168C90715D0016841F00101016026
:100AF00051480021006805F023FF0C4610280AD059
:100B00004E48006805F086FF4A480C30016821F025
:100B10000101016010BD0120FFF73FFE484821465A
:100B20000068BDE8104005F04DBF70B5414D2D1D6A
:100B30002868800719D0424E306805F019FF04007C
:100B40000FD0024600210120FFF772FE3D4800222F
:100B50002146006805F000FF18B12146306805F015
:100B600031FF286840F02000286070BD364810B57D
:100B70000168C90715D0016841F0010101602E48E4
:100B80000021406805F0DCFE0C4610280AD02B48F6
:100B9000406805F03FFF2C480C30016821F001014E
:100BA000016010BD0220FFF7F8FD254821460068CE
:100BB000BDE8104005F006BF70B5234D2D1D286817
:100BC000800719D01E4E306805F0D2FE04000FD009
:100BD000024600210220FFF72BFE1A480022214680
:100BE000406805F0B9FE18B12146306805F0EAFE0C
:100BF000286840F02000286070BD00F01F0201212D
:100C000091404009800000F1E020C0F800117047D9
:100C10000907090E002806DA00F00F0000F1E020B5
:100C200080F8141D704700F1E02080F80014704730
:100C300038000020086400405C0000206C000020A8
:100C40005800002064000020086800402DE9F041B1
:100C50006E4C80460D46207878BB012020706C4891
:100C600005F098FE6060A0B369480021203805F0C7
:100C70004FFE0834002120606548183805F048FE12
:100C800004F10806012130606148283805F0AAFE09
:100C900004F11007002138605D48103805F038FE77
:100CA00060605B480021083805F032FE70605848EB
:100CB0000121243805F096FE78604046DFF854C1E3
:100CC00000DF002806D129464046BDE8F041FFF785
:100CD00007BD0220BDE8F081FFF726BD2DE9F047F2
:100CE000924689468046441EFFF73CFD90B3474E2E
:100CF000706805F03DFE05003CD099E80E00D9F87B
:100D00000C0006F10807C5E90230C5E9001257F8E2
:100D100024005246294605F01FFE48B12946706856
:100D200005F050FE10B10720BDE8F0870820FBE772
:100D30004046FFF717FDD8B957F82400002105F009
:100D4000FFFD324D1835102805D055F8240005F068
:100D500061FE0DE008E0706805F034FE20B155F842
:100D6000240005F057FEDEE749464046FFF715FD33
:100D70000020D9E70620D7E70023CB73AEE7012395
:100D8000CB73ABE72DE9F04188460646154614467D
:100D90004FF6FF773046FFF7E5FC50B1BD4200D17A
:100DA000641C0120641E05F05FFD002CF2DA0820AF
:100DB00090E741463046FFF77EFD04461348183061
:100DC00000EB860050F8040C05F024FE204681E775
:100DD00070B50C4611460D4A401E103252F82000E4
:100DE00005F0AEFD102801D0082070BD91E82D005F
:100DF00084E82D000548406805F0E4FD0028F4D0A3
:100E0000072070BDFFF72CBEFFF767BE540000201F
:100E10005C7C00089D05000830B5324889B0016847
:100E200041F0200101604015009003200024CDE92D
:100E3000010469462C4804F09BFB2A4814300168E1
:100E400041F4806101602A4828490125C0E9001465
:100E5000846004618461C0E90945C462C460C0E97A
:100E60000745456100F055FE07200794CDE90505CB
:100E700005A91F4801F088F809B0002030BD1948C5
:100E800010B51430016821F48061016041151648E5
:100E900004F036FC002010BD154910B509686FF04C
:100EA00002000860124800F05FFE002010BD10B57F
:100EB00000210F4800F09DFE002801D04FF0FF30C8
:100EC00010BD10B500210A4800F093FE10B14FF09C
:100ED000FF3010BDBDE81040054801F052B80C20AD
:100EE00070470000303802400014024000220140E8
:100EF000680700202DE9F0410746FF48BD180E465F
:100F00000078CC1820B3C7F30F210220641E6D1E99
:100F100000F0B7FCF9B2032000F0B3FCC5F30F21D9
:100F2000042000F0AEFCE9B2052000F0AAFCC6F3F4
:100F30000F21062000F0A5FCF1B2072000F0A1FC73
:100F4000C4F30F21082000F09CFCE1B2092017E057
:100F5000B1B2502000F095FC641EA1B2512000F007
:100F600090FCB9B2522000F08CFC6D1EA9B2532047
:100F700000F087FCB1B2202000F083FCB9B2212040
:100F8000BDE8F04100F07DBC2DE9F041DB488CB0BC
:100F9000016841F004010160016841F0080101604D
:100FA000016841F010010160016841F02001016019
:100FB000016841F0400101600126022500240096ED
:100FC000CDE901540C27CDE903576946CC4804F01C
:100FD000CFFA4FF68070CDE9000502AA694682E893
:100FE000B000C84804F0C4FA4CF23370CDE90005F3
:100FF00002AA694682E8B000C34804F0B9FA4FF487
:101000008058CDF80080CDE90154CDE903576946F9
:10101000BE4804F0ADFA80200090CDE90164BC4DDB
:1010200069462846039404F0A3FAB44808300168DE
:1010300041F001010160B7484FF0204100220160FA
:10104000B54941600621C0E902141021C0E90441FC
:101050008461C4610462C0E90948C46204634463F2
:1010600084630B20CDE906400596089409940A9400
:1010700005A9A8480B9404F0D2FF322000F063FCCD
:101080004FF0D840048047889B48472F7ED004709B
:10109000A915012000F0F5FB4FF4E061022000F0FB
:1010A000F0FB0021042000F0ECFB40F207210820B7
:1010B00000F0E7FB0021092000F0E3FB00210A20FB
:1010C00000F0DFFB00210C2000F0DBFB00210D20F5
:1010D00000F0D7FB00210F2000F0D3FB00211020EF
:1010E00000F0CFFB0021112000F0CBFB00211220EB
:1010F00000F0C7FB0021132000F0C3FBC82000F064
:1011000022FC41F2B021102000F0BBFB072111208E
:1011100000F0B7FB322000F016FC40F2BD111220A7
:1011200000F0AFFB322000F00EFC4FF4A051132072
:1011300000F0A7FB0E21292000F0A3FB322000F0D5
:1011400002FC0021202000F09CFB0021212000F067
:1011500098FBA7F5A840083840F207647ED0E3303A
:1011600040F20776B0F5804F79D00621302000F0AC
:1011700088FB40F20111312000F083FB0321322073
:1011800000F07FFB4FF48371352000E01AE000F09F
:1011900078FB40F60231362000F073FB40F202315A
:1011A000372000F06EFB3146382000F06AFB072143
:1011B000392000F066FBE11F3C2000F062FB40F2AA
:1011C0000B218EE106700021EA2000F05AFB20215D
:1011D000EB2000F056FB0C21EC2000F052FBC72165
:1011E000ED2000F04EFB3821E82000F04AFB1021F2
:1011F000E92000F046FB0121F12000F042FB102124
:10120000F22000F03EFB0121402000F03AFB0021DB
:10121000412000F036FB0021422000F032FB10217B
:10122000432000F02EFB0E21442000F02AFB242155
:10123000452000F026FB0421462000F022FB50212F
:10124000472000F01EFB0221482000F01AFB13216A
:10125000492000F016FB19214A2001E0CBE018E1FB
:1012600000F00FFB19214B2000F00BFB16214C2046
:1012700000F007FB1B21502000F003FB312151201F
:1012800000F0FFFA2F21522000F0FBFA3F215320FB
:1012900000F0F7FA3F21542000F0F3FA3E215520E8
:1012A00000F0EFFA2F21562000F0EBFA7B215720B7
:1012B00000F0E7FA0921582000F0E3FA062159204E
:1012C00000F0DFFA06215A2000F0DBFA0C215B2047
:1012D00000F0D7FA1D215C2000F0D3FACC215D206C
:1012E00000F0CFFA1B21084600F0CBFA01211A20AA
:1012F00000F0C7FA2F2111E07400002030380240BE
:101300000014024000100240000C0240001802408D
:1013100000080240AC070020040100A0242000F0D7
:10132000B0FA5721252000F0ACFA8821232000F0E4
:10133000A8FA3621182000F0A4FA0121192000F0A3
:10134000A0FA0021012000F09CFA88211F2000F063
:1013500098FAC82000F0F7FA82211F2000F091FAD5
:10136000322000F0F0FA92211F2000F08AFA322099
:1013700000F0E9FAD2211F2000F083FA322000F0B9
:10138000E2FA5521172000F07CFA0021084600F00F
:1013900078FA11212F2000F074FA0021312000F09A
:1013A00070FA0021322000F06CFA3821282000F079
:1013B00068FAC82000F0C7FA3C21282000F061FA42
:1013C000A821162000F05DFA00210E2000F059FA45
:1013D00000210F2000F055FA0121102000F051FAF1
:1013E0004021112000F04DFA0021122000F049FAAE
:1013F00000211320DBE040F60D31302000F041FAEF
:1014000041F62311312000F03CFA41F6264132200A
:1014100000F037FA42F21C61332000F032FA42F257
:101420001941342000F02DFA40F60B51352000F020
:1014300028FA41F20601362000F023FA4FF4C26187
:10144000372000F01EFA40F20671382000F019FA39
:101450004FF44171392000F014FA40F605613A204A
:1014600000F00FFA40F601613B2000F00AFA4FF459
:1014700087713C2000F005FA40F20E513D2000F04B
:1014800000FA40F203413E2000F0FBF921463F20E4
:1014900028E00021302000F0F4F92146312000F04E
:1014A000F0F940F20531322000F0EBF9002135204F
:1014B00000F0E7F941F20461362000F0E2F94FF460
:1014C0000171372000F0DDF90121382000F0D9F951
:1014D0003146392000F0D5F900213C2000F0D1F947
:1014E0000F213D2000F0CDF90021502000F0C9F976
:1014F000EF21512000F0C5F90021522000F0C1F980
:1015000040F23F11532000F0BCF907F6F837B7F569
:10151000C04706D0E337B7F5804F02D04FF42741DC
:1015200001E04FF41C51602000F0ABF90121612073
:1015300000F0A7F900216A2000F0A3F90021802023
:1015400000F09FF90021812000F09BF9002182200A
:1015500000F097F90021832000F093F90021842006
:1015600000F08FF90021852000F08BF910219020E8
:1015700000F087F90021922000F083F903219320E5
:1015800000F07FF94FF48871952000F07AF900217E
:10159000972000F076F90021982000F072F941F2CE
:1015A0003801032000F06DF940F23711072000F0F8
:1015B00068F901228021284604F0F4F80CB00020DC
:1015C000BDE8F08110B5B14804F052FD0121B048EA
:1015D00004F096F84FF68071AE4804F091F84CF2A2
:1015E0003371AD4804F08CF84FF48051AB4804F0EF
:1015F00087F88021AA4804F083F8002010BDA9498B
:10160000488000207047A74988800020704710B5A7
:101610000021F0234FF4A0720846FFF76BFC4FF057
:10162000D842222010809F4900204FF496338988A9
:101630005180401C9842FBD3002010BD994988601E
:10164000002070472DE9F041964E05460C46307853
:1016500010B3C5F30F210F46022000F012F9E9B2D2
:10166000032000F00EF93946042000F00AF9E9B22F
:10167000052000F006F9C4F30F210D46062000F006
:1016800000F9E1B2072000F0FCF82946082000F03C
:10169000F8F8E1B2092005E089B2202000F0F1F865
:1016A000A9B2212000F0EDF84FF0D84022210180AE
:1016B00071884180002083E710B514460123FFF7AD
:1016C00019FC4FF0D841222008807648408800E07D
:1016D0004880641EFCD2002010BD10B5144613468D
:1016E0000122FFF707FC4FF0D841222008806D4807
:1016F000408800E04880641EFCD2002010BD2DE927
:10170000F0411C4616460D460746FFF7D5FF29193E
:1017100032463846FFF7D0FF224629463846FFF7C3
:10172000DCFFB81922462946FFF7D7FF002047E71C
:101730002DE9F0415B4DAB68A3B15C68DF68141B19
:101740001A885B88D61DF608744303FB0474FFF700
:10175000D1FB4FF0D843222018800022AE886F883A
:10176000A9681BE04FF0FF302AE7257800F0070C4E
:1017700025FA0CF5ED0701D03D4600E035465D80C9
:10178000C5436D0704D10D886D1E854200D0641CD1
:10179000401C0D888542E8D8521C641C4888904241
:1017A0004FF00000F5D80BE72DE9F04114460F4645
:1017B00005463C4E07E039462846641CFFF7B8FF53
:1017C000B068008805442278002AF4D10020F7E6AA
:1017D0002DE9F0411446069A1E4662436423B2FB8B
:1017E000F3F533462246FFF785FB4FF0D84722201A
:1017F00038802C4800214388828808E0A84201D321
:101800007A8000E07B80401CA042F7D3491CB142A3
:101810004FF00000F8D3D3E670B51C461546049E81
:10182000FFF768FB4FF0D84122200880641E6C430C
:1018300007E0221836F812204A80401CA842F8D34C
:10184000641B002C4FF00000F8DA70BD4FF0FF3041
:10185000704710B50021F0234FF4A0720846FFF73F
:1018600049FB0021202000F00CF80021212000F08D
:1018700008F84FF0D84122200880002010BD0A4807
:1018800070474FF0D842108051807047AC0700205D
:101890000014024000100240000C024000180240F8
:1018A00000080240740000200200006CFEE7FEE722
:1018B000704710B5044604F0CDFA4FF47A71B0FBCE
:1018C000F1F000F02CFF00222146501E00F0E5FE52
:1018D000002010BD444810B5016841F4007101605A
:1018E000016841F480610160016841F48071016028
:1018F000032000F0C5FE0F20FFF7DBFFFFF7D8FF46
:10190000002010BD7047394A10B54FF0FF3010600D
:1019100000211160121D10601160344A103A1060ED
:101920001160121D10601160121D10601160FFF730
:10193000E9FF002010BD2E480168491C0160704776
:101940002B480068704731B5FEF7F0FC4FEA000401
:10195000FEF7ECFC0099001B8842F9D338BD4FF02C
:10196000E020016921F00201016170474FF0E020A1
:10197000016941F00201016170471E4870471E482D
:101980000068000C70471C480068C0F30B007047EB
:101990001948416841F001014160704716484168AB
:1019A00021F00101416070471348416841F0020194
:1019B000416070471048416821F002014160704762
:1019C0000D48416841F00401416070470A48416890
:1019D00021F0040141607047084901200860704708
:1019E0000649002008607047003C02402038024051
:1019F0009C00002000000101002004E000042742B8
:101A0000FE4910B5D1F8042322F44032C1F8042372
:101A1000D1F8042343681A43C1F8042301684A68D3
:101A200022F480724A6001684A68036942EA03222C
:101A30004A6001684A6822F040724A6001684A6858
:101A400083681A434A6001688A6822F400628A60E7
:101A500001688A68C3681A438A6001688A6822F04C
:101A600070628A6001688A68036B1A438A60016841
:101A70008A6822F040528A6001688A68C36A1A4301
:101A80008A6001688A6822F002028A6001688A68B6
:101A9000836942EA43028A60416A002901684A6810
:101AA0000FD042F400624A6001684A6822F4604242
:101AB0004A6001684A68D24C836A04EB43331A4394
:101AC00001E022F400624A600168CA6A22F47002EE
:101AD000CA620168CA6A038CCA4C04EB03531A43F6
:101AE000CA6201688A6822F400728A6001688A68A2
:101AF000C36942EA43228A6001688A6822F48062EC
:101B00008A6001688A68406942EA8020886010BD66
:101B1000704710B5040003D094F83D0010B104E004
:101B2000012010BD2046FFF7F3FF022084F83D009E
:101B30002046FFF765FF00202064012184F83D1056
:101B400084F83C0010BD704710B504000AD0022094
:101B500084F83D002046FFF7F6FF0020206484F85B
:101B60003D0010BD012010BD90F83C200021012A4D
:101B70000FD0012280F83C2090F83D20222A0AD084
:101B80005FF0120280F83D2002689368DB0704D002
:101B90000EE0022070473222F4E7936843F001031D
:101BA00093604FF4077200BF491C89B29142FAD981
:101BB000924AD2F80413C90605D00168914209D1AE
:101BC000C26A1AB106E0C16A21B901688A6842F0A6
:101BD00080428A60002180F83C1008467047016806
:101BE0008A6822F001028A60012180F83D100020FD
:101BF000704770B50D460446FEF798FB06460FE0A9
:101C0000681C0DD025B1FEF791FB801BA84207D9B7
:101C1000032084F83D00002084F83C00032070BDC0
:101C2000206800688007EBD594F83D00252805D092
:101C30005FF0150084F83D00002070BD3520F9E705
:101C40002DE9F04115460E460446FEF76FFB0746A8
:101C500010E0681C0ED025B1FEF768FBC01BA8423F
:101C600008D9032084F83D00002084F83C000320BC
:101C7000BDE8F0812068006836EA0000E9D1012E55
:101C800008D0042084F83D006FF02000216808602F
:101C90000020EDE7062084F83D006FF00100F5E735
:101CA00010B590F83C200021012A10D0012280F8C4
:101CB0003C2090F83D20222A0BD0122280F83D20B3
:101CC0000023036402689468E40704D00EE0022055
:101CD00010BD3222F2E7946844F0010494604FF49E
:101CE000077200BF491C89B29142FAD901684A685B
:101CF00042F080624A6001684A6842F020024A600D
:101D00003E4AD2F80413C90605D00168914209D1B0
:101D1000C26A1AB106E0C16A21B901688A6842F054
:101D200080428A6080F83C30002010BD01684A681B
:101D300022F020024A6001684A6822F080024A606C
:101D400001688A6822F001028A60012180F83D1052
:101D50000020704770477047704770B504460068B0
:101D60000168C1F3400241683525C1F3401152B307
:101D700049B394F83D10252905D0152184F83D106C
:101D8000A16919B118E084F83D50F9E7E16A99B901
:101D9000616941B1616B09B9216A6163616B491E77
:101DA0006163616B41B9416821F0200141602068A5
:101DB000416821F0806141602046FFF7CDFF216836
:101DC0006FF002000860206801684268C1F380017A
:101DD000C2F3C01231B32AB394F83D1015294CD088
:101DE000252184F83D104168826841F38021491C17
:101DF00012F4401F44D00022A36905E000200140F6
:101E000000E0FFFF0000F0FF03B121B11AB141680B
:101E100021F080014160204600F01EFB21686FF038
:101E20000400086020680168426811F0010FC2F3E5
:101E3000801209D042B1062184F83D106FF00101F3
:101E400001602046FFF787FF206801684268C1F300
:101E50004011C2F3806200290ED0002A0CD0042168
:101E600084F83D10216C41F0010121646FF02001E4
:101E700001602046FFF76EFF70BD84F83D50B2E769
:101E80000122B9E710B5806B042180F83D10016C88
:101E900041F002010164FFF75DFF10BD704710B50E
:101EA000806BFFF7FBFF10BD10B5806B90F83D1005
:101EB000252906D05FF0150180F83D10FFF74CFF93
:101EC00010BD3521F8E770B5044690F83C000025B8
:101ED0000E46012824D0012084F83C002068416887
:101EE00041F0806141602068816841F480718160C7
:101EF000A16B88481346C863A16B874832460864C3
:101F0000A16B864888642168A06B4C3101F0BFF951
:101F1000122084F83D0020688168C90702D00CE0D7
:101F2000022070BD816841F0010181604FF40770AB
:101F300000BF6D1CADB28542FAD9E06A20B92068B5
:101F4000816841F080418160002084F83C0070BDD0
:101F500010B504460068816821F0010181602068A5
:101F6000416821F0806141602068816821F48071BE
:101F70008160A06B01F0C1F9012084F83D000020D0
:101F800010BD0068C06C704730B590F83C20012A45
:101F900019D0012280F83C200A6807230468092A26
:101FA00013D9E5680A3A02EB420293409D43E5608B
:101FB0000A788B680A3A02EB420293400268D468BE
:101FC0002343D36010E0022030BD256902EB4202BA
:101FD00093409D4325610A788B6802EB420293404F
:101FE00002681469234313614A681F23072A12D227
:101FF0000468656B521E02EB820293409D43656349
:102000000A790B68521E02EB820293400268546BFD
:102010002343536325E004680D2A11D2256BD21F98
:1020200002EB820293409D4325630B790A68DB1F14
:1020300003EB83039A4003681C6B22431A6310E08E
:10204000E56A0D3A02EB820293409D43E5620B790B
:102050000A680D3B03EB83039A400368DC6A224362
:10206000DA622F4A0368934208D10B68122B05D11C
:10207000D2F8043343F48003C2F804330368934274
:102080000AD10968102901D0112905D1D2F8041309
:1020900041F40001C2F80413002180F83C10084606
:1020A00030BD10B590F83C20012A29D0012280F8DB
:1020B0003C200A69012A0268536823D023F04003B8
:1020C000536002685368174C23405360026853689A
:1020D0000C682343536003684A685A6203688A683D
:1020E0009A620268536823F01F03536002685368C2
:1020F000C9680B435360002180F83C10084610BDAE
:10210000022010BD43F04003DAE790F83D0070472D
:10211000006C7047A91E00089F1E0008851E00085D
:1021200000200140FFFD3FFF10B590F83C10012951
:102130000FD0012180F83C1090F83D1012290AD0F0
:102140005FF0220180F83D1001688A68D20704D050
:102150000FE0022010BD3221F4E78A6842F001024C
:102160008A6000BF01214FF4077200BF491C9142F1
:10217000FBD9F84CD4F80413C90601688A6802F444
:10218000401212D0F2B100234A6842F38022521C5E
:10219000A14205D123B11AB18A6842F480028A6053
:1021A000002180F83C10084610BD4AB100224B685F
:1021B00043F380235B1C002AF2D0002BECD1EFE725
:1021C0000122F4E70123DFE730B590F83C10012944
:1021D00011D0012180F83C1090F83D1012290CD04C
:1021E0005FF0220180F83D100024046401688A68D1
:1021F000D20704D00FE0022030BD3221F2E78A6816
:1022000042F001028A6000BF01214FF4077200BF53
:10221000491C9142FBD901684A6842F080024A6039
:1022200001684A6842F080624A60CA4BD3F80413DE
:10223000C90601688A6802F4401211D0EAB100228E
:102240004D6845F380256D1C994205D122B11DB121
:102250008A6842F480028A6080F83C40002030BDE9
:102260004AB100224B6843F380235B1C002AF3D061
:10227000002BEDD1F0E70122F4E70122E0E701684D
:102280008A6822F001028A60012180F83D10002056
:10229000704770B50D460446FEF748F806460FE055
:1022A000681C0DD025B1FEF741F8801BA84207D964
:1022B000032084F83D00002084F83C00032070BD1A
:1022C000206800684007EBD594F83D00152805D03C
:1022D0005FF0250084F83D00002070BD3520F9E74F
:1022E00001684A6822F020024A6001684A6822F0C8
:1022F00080024A6001688A6822F001028A60012136
:1023000080F83D100020704708B500220092036855
:10231000521F1A60012911D002290CD0032906D0BE
:10232000042901D0009808BD0068806C01E00068B5
:10233000406C009008BD0068006CFAE70068C06B54
:10234000F7E7806B042180F83D10016C41F0020139
:102350000164FFF7FFBC806BFFF7A0BD806B90F8B6
:102360003D10252904D0152180F83D10FFF7F4BC5D
:102370003521F9E770B5044690F83C0000250128A6
:1023800010D0012084F83C002068436843F080634B
:1023900043607048E369002BD0F8043304D043F461
:1023A000005303E0022070BD23F40053C0F804334F
:1023B000A36B6948D863A36B68481864A36B68482B
:1023C000986413460A466749A06B00F060FF12202C
:1023D00084F83D0020688168C9070AD1816841F00E
:1023E000010181604FF4077000BF6D1CADB28542E2
:1023F000FAD9E06A20B92068816841F080418160A3
:10240000002084F83C0070BD70B5044690F83C0094
:1024100001281BD0012584F83C502068816821F0F8
:102420000101816054F8380B416821F080614160FE
:102430004848D0F8041321F40051C0F80413206870
:1024400000F05BFF65710020207170BD022070BD3F
:102450004048D0F808037047704730B590F83C20EA
:10246000012A19D0012280F83C200A680723046859
:10247000092A13D9E5680A3A02EB420293409D43C8
:10248000E5600A788B680A3A02EB420293400268E0
:10249000D4682343D36010E0022030BD256902EBED
:1024A000420293409D4325610B788A6803EB430306
:1024B0009A4003681C6922431A610268936B23F4F3
:1024C000401393630268936B0C8A274D05EB045409
:1024D000234393630A790B7CD21AD21C02EB82024B
:1024E0001F2393400268946B9C4394630A790B7C8E
:1024F000D21AD21C02EB82030A689A4003689C6BD2
:1025000022439A630268936823F4702393600268FD
:1025100093680C6A234393600268936823F4401322
:10252000936002689368CC69234393604A69002AE8
:102530000268536802D043F4806301E023F48063AF
:1025400053608A69002A026853680FD043F48053AD
:102550000EE00000002001405D2300085723000822
:1025600043230008082301400000F0FF23F48053B8
:1025700053604A68012A15D0022A1ED0032A026835
:1025800026D0136A6FF30B0313620268136ACC68D8
:1025900023431362394A0368934229D10B68122BF3
:1025A00020D025E0026853696FF30B035361026882
:1025B0005369CC6823435361ECE7026893696FF376
:1025C0000B03936102689369CC6823439361E1E74D
:1025D000D3696FF30B03D3610268D369CC682343DB
:1025E000D361D7E7D2F8043343F48003C2F804334D
:1025F000036893420AD10968102901D0112905D135
:10260000D2F8041341F40001C2F80413002180F849
:102610003C10084630BD10B590F83C20012A2BD064
:10262000012200F83C2F154AD2F8043323F01F038F
:10263000C2F80433D2F804330C682343C2F80433DD
:10264000D2F8043323F44043C2F80433D2F80433FD
:102650004C682343C2F80433D2F8043323F4706384
:10266000C2F80433D2F8043389680B43C2F8043348
:1026700000210170084610BD022010BD002001405D
:10268000734900F0070208684FF6FF03184040EA5C
:102690000220704A104308607047F0B46C4B1B680E
:1026A0000C46C3F30223C3F10705042D00D904250A
:1026B000191D072901D2002300E0DB1E012606FABE
:1026C00005F1491E214099409E40761E1640314337
:1026D000F0BC00F0ADB800F01F02012191404009AC
:1026E000800000F1E020C0F80011704700F01F02E8
:1026F000012191404009800000F1E020C0F88011E4
:102700007047BFF34F8F52480168524A01F4E061AD
:10271000121D11430160BFF34F8F00BFFDE710B5DD
:10272000401EB0F1807F01D3012010BD4FF0E024A6
:1027300060610F21601700F07BF80020A061072086
:102740002061002010BD42480068C0F3022070479D
:1027500070B5002806DA00F00F0000F1E02090F8D4
:10276000140D03E000F1E02090F80004040901F0EA
:102770000700C0F10705042D00D90425011D072914
:1027800001D2002000E0C01E012124FA00F601FA67
:1027900005F56D1E2E408140491E214016601960CE
:1027A00070BD00F01F02012191404009800000F13E
:1027B000E020C0F8001270474109890001F1E021D2
:1027C000D1F8001200F01F0201209040014201D018
:1027D000012070470020704700F01F020121914046
:1027E0004009800000F1E020C0F8801270474109E4
:1027F000890001F1E021D1F8001300F01F0201204F
:102800009040014201D001207047002070474FF0F6
:10281000E0210428086903D020F004000861704713
:1028200040F00400FAE7704710B5FFF7FCFF10BD59
:102830000907090E002806DA00F00F0000F1E02079
:1028400080F8141D704700F1E02080F800147047F4
:102850000CED00E00000FA0570B5D0B10221446A29
:1028600080F8351003681A68FE490A40D0E901155E
:102870002943D0E9035635432943456929438569EE
:102880002943C5692943056A29431143042C02D011
:1028900005E0012070BDD0E90B24224311431960EB
:1028A00003685969426A21F007011143042A01D1E2
:1028B000826A114359610021C164012180F83510F9
:1028C000002070BD2DE9F04FF0B390F835100229CB
:1028D0004BD001680A6822F001020A6002680021F8
:1028E000116002685160026891600268D1600268FC
:1028F0001161026821215161DD4ADB4BDC4CDA4D6C
:10290000DB4ED94FDFF86083DFF864E30168DFF85E
:102910005CC3DFF85CB3A83A483B483C1835903EAE
:10292000303F4FF480794FF4802AAEF1600E41457C
:102930003DD9914238D0994236D0A14234D0A942F3
:1029400032D0B1420FD000E00FE0B9420BD0DFF837
:1029500020C3ACF1300C614505D0DFF80CC30CF19D
:10296000300C614504D1CC461EE00120BDE8F08F5B
:10297000DFF8FCC2ACF1780C614511D0DFF8E8C299
:10298000ACF1180C61450BD0DFF8E4C2ACF1180CC7
:10299000614505D0DFF8D0C20CF1480C614501D18A
:1029A000D44601E04FF0807CAF494C3939E05945BD
:1029B0003AD9914233D0994231D0A1422FD0A94285
:1029C0002DD0B1420DD0B9420BD0DFF8A4C2ACF18A
:1029D000300C614505D0DFF890C20CF1300C614538
:1029E00001D1CC461BE0DFF888C2ACF1780C614520
:1029F00011D0DFF874C2ACF1180C61450BD0DFF8D0
:102A000070C2ACF1180C614505D0DFF85CC20CF166
:102A1000480C614501D1D44601E04FF0807C9249D9
:102A20005039C1F800C076E071453AD9914233D0AF
:102A3000994231D0A1422FD0A9422DD0B1420DD020
:102A4000B9420BD0DFF828C2ACF1300C614505D09B
:102A5000DFF814C20CF1300C614501D1CC461BE00B
:102A6000DFF80CC2ACF1780C614511D0DFF8F8C189
:102A7000ACF1180C61450BD0DFF8F4C1ACF1180CC7
:102A8000614505D0DFF8E0C10CF1480C614501D18A
:102A9000D44601E04FF0807C7549B839C1F80CC0CC
:102AA00039E0914233D0994231D0A1422FD0A9428E
:102AB0002DD0B1420DD0B9420BD0DFF8B4C1ACF18A
:102AC000300C614505D0DFF8A0C10CF1300C614538
:102AD00001D1CC461BE0DFF898C1ACF1780C614520
:102AE00011D0DFF884C1ACF1180C61450BD0DFF8D0
:102AF00080C1ACF1180C614505D0DFF86CC10CF158
:102B0000480C614501D1D44601E04FF0807C584922
:102B1000B839C1F808C0DFF8508101684FF4006C83
:102B20004FF400194FF0006A414538D9914205D061
:102B3000994203D0A14201D0A94202D14FF0200C0A
:102B40002AE0B14228D0B94226D0DFF82481A8F18A
:102B50003008414520D0DFF8108108F130084145A8
:102B60001AD0DFF80CC1ACF1780C614511D0DFF858
:102B7000F8C0ACF1180C61450BD0DFF8F4C0ACF133
:102B8000180C614505D0DFF8E0C00CF1480C614538
:102B900001D1CC4600E0D44633494C3939E059459F
:102BA0003AD9914205D0994203D0A14201D0A9421D
:102BB00002D14FF0200C2AE0B14228D0B94226D0F1
:102BC000DFF8AC80A8F13008414520D0DFF89880CC
:102BD00008F1300841451AD0DFF894C0ACF1780C08
:102BE000614511D0DFF880C0ACF1180C61450BD005
:102BF000DFF87CC0ACF1180C614505D0DFF868C087
:102C00000CF1480C614501D1CC4600E0D446164990
:102C10005039C1F800C077E071453FD9914205D0E5
:102C2000994203D0A14201D0A94202D14FF0200C19
:102C30002FE0B1422DD0B9422BD0DFF83480A8F17B
:102C40003008414525D0DFF8208008F130084145A3
:102C50001FD0DFF81CC0ACF1780C614516D0DFF84E
:102C600008C007E03F8014F0586402400400800070
:102C7000B8600240ACF1180C614507D0DFF8FCC326
:102C8000614503D0DFF8F8C3614501D1CC4600E0CF
:102C9000D446FA49A039C1F80CC035E0914205D0BC
:102CA000994203D0A14201D0A94202D14FF0200C99
:102CB00026E0B14224D0B94222D0DFF8C083A8F187
:102CC000180841451CD0DFF8B883A8F11808414521
:102CD00016D0DFF8A8C3ACF1600C61450DD0DFF869
:102CE000A0C3ACF1600C614507D0DFF890C361452B
:102CF00003D0DFF88CC3614501D1CC4600E0D44657
:102D0000DE49A039C1F808C0DFF874830168A8F172
:102D100048084FF4007C4FF400294FF0007A4145F9
:102D200034D9914205D0994203D0A14201D0A942A1
:102D300002D14FF0080C26E0B14224D0B94222D093
:102D4000DFF83883A8F1180841451CD0DFF830833C
:102D5000A8F11808414516D0DFF820C3ACF1600C8B
:102D600061450DD0DFF818C3ACF1600C614507D0A8
:102D7000DFF808C3614503D0DFF804C3614501D122
:102D8000CC4600E0D446BE49943935E0594536D9A1
:102D9000914205D0994203D0A14201D0A94202D16B
:102DA0004FF0080C26E0B14224D0B94222D0DFF81F
:102DB000CC82A8F1180841451CD0DFF8C482A8F1E4
:102DC0001808414516D0DFF8B4C2ACF1600C61457B
:102DD0000DD0DFF8ACC2ACF1600C614507D0DFF874
:102DE0009CC2614503D0DFF898C2614501D1CC4651
:102DF00000E0D446A2499839C1F800C06EE07145A0
:102E000036D9914205D0994203D0A14201D0A942BE
:102E100002D14FF0080C26E0B14224D0B94222D0B2
:102E2000DFF85882A8F1180841451CD0DFF850821D
:102E3000A8F11808414516D0DFF840C2ACF1600C8B
:102E400061450DD0DFF838C2ACF1600C614507D0A8
:102E5000DFF828C2614503D0DFF824C2614501D103
:102E6000CC4600E0D4468549A039C1F80CC035E015
:102E7000914205D0994203D0A14201D0A94202D18A
:102E80004FF0080C26E0B14224D0B94222D0DFF83E
:102E9000EC81A8F1180841451CD0DFF8E481A8F1C5
:102EA0001808414516D0DFF8D4C1ACF1600C61457B
:102EB0000DD0DFF8CCC1ACF1600C614507D0DFF874
:102EC000BCC1614503D0DFF8B8C1614501D1CC4632
:102ED00000E0D4466949A039C1F808C0DFF8A081F4
:102EE0000168A8F14808DFF89CC14FF480394FF41D
:102EF000800A414534D991422FD099422DD0A14228
:102F00002BD0A94229D0B1420DD0B9420BD0DFF865
:102F10006CC1ACF1180C614505D0DFF864C1ACF1AF
:102F2000180C614502D14FF0400C16E0DFF84CC19F
:102F3000ACF1600C61450DD0DFF844C1ACF1600C20
:102F4000614507D0DFF834C1614503D0DFF830C1F7
:102F5000614501D1CC4600E0D4464949943935E079
:102F6000594536D991422FD099422DD0A1422BD02C
:102F7000A94229D0B1420DD0B9420BD0DFF8FCC034
:102F8000ACF1180C614505D0DFF8F4C0ACF1180CB9
:102F9000614502D14FF0400C16E0DFF8E0C0ACF123
:102FA000600C61450DD0DFF8D8C0ACF1600C614514
:102FB00007D0DFF8C8C0614503D0DFF8C4C0614561
:102FC00001D1CC4600E0D4462D499839C1F800C063
:102FD00075E0714536D991422FD099422DD0A1424A
:102FE0002BD0A94229D0B1420DD0B9420BD0DFF885
:102FF0008CC0ACF1180C614505D0DFF884C0ACF191
:10300000180C614502D14FF0400C16E0DFF86CC09F
:10301000ACF1600C61450DD0DFF864C0ACF1600C20
:10302000614507D0DFF854C0614503D0DFF850C0D8
:10303000614501D1CC4600E0D4461049A039C1F821
:103040000CC03CE0914236D0994234D0A14232D0FB
:10305000A94230D0B1420DD0B9420BD0DFF81CC02C
:10306000ACF1180C614505D0DFF814C0ACF1180CB8
:10307000614509D14FF0400C1DE00000A060024006
:10308000A064024001008000DFF820C461450FD039
:10309000DFF81CC461450BD0DFF810C40CF1600CE4
:1030A000614505D0DFF808C40CF1600C614501D121
:1030B000CC4600E0D446FD494039C1F808C0DFF8ED
:1030C000F083016808F118084FF4806C4FF4801900
:1030D0004FF0806A41452AD9914205D0994203D0E8
:1030E000A14201D0A94202D14FF0100C1CE0B14224
:1030F0001AD0B94218D0ED4A4832914214D0EC4A65
:103100004832914210D0E94A91420AD0E84A9142AD
:1031100007D0E64A6032914203D0E54A60329142DC
:1031200001D1CC4600E0D446E14934392BE0594581
:103130002CD9914205D0994203D0A14201D0A94295
:1031400002D14FF0100C1CE0B1421AD0B94218D095
:10315000D64A4832914214D0D54A4832914210D0D2
:10316000D24A91420AD0D24A914207D0CF4A603225
:10317000914203D0CE4A6032914201D1CC4600E068
:10318000D446CB493839C1F800C05AE071452CD932
:10319000914205D0994203D0A14201D0A94202D167
:1031A0004FF0100C1CE0B1421AD0B94218D0BF4AFF
:1031B0004832914214D0BE4A4832914210D0BB4AA4
:1031C00091420AD0BA4A914207D0B84A603291423D
:1031D00003D0B74A6032914201D1CC4600E0D446D8
:1031E000B2494039C1F80CC02BE0914205D0994258
:1031F00003D0A14201D0A94202D14FF0100C1CE033
:10320000B1421AD0B94218D0A84A4832914214D0DB
:10321000A74A4832914210D0A44A91420AD0A44A07
:10322000914207D0A14A6032914203D0A04A603255
:10323000914201D1CC4600E0D4469C494039C1F8C6
:1032400008C00021C16480F8351080F834100846A9
:10325000BDE8F08F70B5044690F83400012814D012
:10326000012084F83400022084F8350020680568C5
:1032700025F001050560204602F066F92068016826
:1032800041F001010160002070BD022070BD70B5E9
:10329000044690F8340001282DD0012084F8340031
:1032A000022084F835002068056825F001050560D6
:1032B000204602F049F92068016841F010010160E0
:1032C0002068016841F0080101602068016841F050
:1032D000040101602068416941F08001416120687A
:1032E000016841F0020101602068016841F00101BC
:1032F0000160002070BD022070BD2DE9F041044640
:103300000068016821F001010160FDF70FF8054632
:1033100000264FF47A770FE0FDF708F8401BB8421B
:103320000AD954F84C0F40F0200044F81809032043
:1033300026706070BDE8F08120680068C007EBD19E
:1033400004F8346F012060700020F3E72DE9F74F97
:1033500082B005464FF48066DFF85081544CDFF8A8
:103360004C91DFF84CA1DFF844B1B7020399006833
:10337000A8F13008303C09F130090AF1300AABF10C
:10338000180B49B1404505D0A04203D0484501D0B3
:10339000504530D1102050E0404505D0A04203D028
:1033A000484501D0504501D1202046E058450BD07A
:1033B0003F491839884207D03C494831884203D0F8
:1033C0003B494831884202D14FF4006035E037492B
:1033D00088420AD03649884207D034496031884251
:1033E00003D033496031884202D14FF4001024E009
:1033F0004FF0006021E058450BD02D491839884224
:1034000007D02A494831884203D0294948318842A7
:1034100001D1304611E0254988420AD0244988422A
:1034200007D022496031884203D021496031884267
:1034300001D1384601E04FF080600090FCF776FF44
:103440000190ABE360451BD919493C391EE050455A
:1034500032D108210EE016494831884235D100BFEB
:103460004FF4007106E000BF4FF4002102E000BFFE
:103470004FF000710B4060454ED90D493C3951E089
:103480000A497831884203D9094940390B6805E077
:103490000649183188420749F8D94B684045D8D0C9
:1034A000A042D6D04845D4D0D1E7000040600240C9
:1034B00040640240006002405845D1D0FA49884239
:1034C000CED0FA498842CBD0C5E7F849483988427E
:1034D000CAD0F54918318842C6D0F449183188421B
:1034E000C2D0F14978318842C2D1BDE7504528D1D8
:1034F000EF490BE0EC49603188422BD1402105E0D7
:103500004FF4803102E000BF4FF480010A40604573
:1035100062D9E549243965E0E4493031884203D96C
:10352000E14928390A6805E0E04930398842E14933
:10353000F8D94A684045DBD0A042D9D04845D7D019
:10354000D4E75845DAD0D8498842D7D0D7498842FD
:10355000D4D0CFE7D74940318842D1D0D2491831B1
:103560008842CDD0D14918318842C9D0CE4978316E
:103570008842C9D1C4E7504543D1DFF834C30CF1C8
:10358000030C0FE0DFF820C30CF1600C604544D160
:103590004FF4807C06E000BF4FF4802C02E000BFB7
:1035A0004FF0807C01EA0C0143EA020C5CEA010C5A
:1035B00073D08BB3EB6C43F00103EB64BA4B303345
:1035C00098426CD9404505D0A04203D0484501D06F
:1035D00050453BD108205DE0B4493031884203D9E1
:1035E000B1492839096805E0B04930398842B14904
:1035F000F8D949684045C0D0A042BED04845BCD0AB
:10360000B9E75845C4D0DFF8A0C26045C0D0DFF8A4
:103610009CC26045BCD0B5E7DCE0DFF898C20CF195
:10362000400C6045B8D0DFF880C20CF1180C604542
:10363000B2D0DFF878C20CF1180C6045ACD0DFF8DE
:1036400068C20CF1780C6045AAD1A5E7584509D0AD
:10365000954B984206D0954B984203D0924B6033DD
:10366000984202D14FF4007014E0924B40339842DC
:103670000BD08D4B1833984207D08C4B183398429F
:1036800003D0894B7833984202D14FF4002001E0F7
:103690004FF00070844B1C3B35E067E2FFE7834B43
:1036A0003033984231D9404505D0A04203D0484537
:1036B00001D0504501D1082023E0584509D07A4B6C
:1036C000984206D0794B984203D0774B60339842AA
:1036D00002D14FF4007014E0764B403398420BD087
:1036E000714B1833984207D0704B1833984203D06F
:1036F0006D4B7833984202D14FF4002001E04FF037
:103700000070694B203B186064E0684B303B984286
:1037100030D9404505D0A04203D0484501D050459E
:1037200001D1082023E0584509D05F4B984206D0CC
:103730005E4B984203D05C4B6033984202D14FF409
:10374000007014E05B4B403398420BD0564B18335B
:10375000984207D0554B1833984203D0524B7833D8
:10376000984202D14FF4002001E04FF00070514B1D
:10377000D8602FE0404505D0A04203D0484501D095
:10378000504501D1082023E0584509D0464B9842C6
:1037900006D0464B984203D0434B6033984202D147
:1037A0004FF4007014E0434B403398420BD03E4B33
:1037B0001833984207D03D4B1833984203D03A4B08
:1037C0007833984202D14FF4002001E04FF00070AE
:1037D000384B98609AB3E86C40F00200E864324AD3
:1037E00028683032904230D9404505D0A04203D0FD
:1037F000484501D0504501D12D4823E0584509D016
:10380000294A904206D0294A904203D0264A603283
:10381000904201D1402015E0264A403290420BD020
:10382000214A1832904207D0204A1832904203D0E1
:103830001D4A7832904203D14FF4803002E0A8E074
:103840004FF48000184A1C3A39E0184A303290424E
:1038500037D9404505D0A04203D0484501D0504556
:1038600001D113482AE0584509D00F4A904206D0AA
:103870000E4A904203D00C4A6032904201D140205F
:103880001CE00C4A403290420BD0074A183290425A
:1038900007D0064A1832904203D0034A7832904249
:1038A0000AD14FF4803009E0286402408860024069
:1038B00001008000006002404FF48000FE4A10606A
:1038C00067E0FE4A904232D9404505D0A04203D07D
:1038D000484501D0504501D1F94824E058450BD066
:1038E000F54A2032904207D0F44A3032904203D059
:1038F000F14A8032904201D1402014E0EF4A183A58
:1039000090420BD0EC4A3832904207D0EB4A483212
:10391000904203D0E84A9832904202D14FF480306E
:1039200001E04FF48000E54A583AD06031E040456C
:1039300005D0A04203D0484501D0504501D1E04810
:1039400024E058450BD0DC4A2032904207D0DB4AB5
:103950003032904203D0D84A8032904201D1402088
:1039600014E0D64A183A90420BD0D34A38329042EB
:1039700007D0D24A4832904203D0CF4A9832904280
:1039800002D14FF4803001E04FF48000CB4A583A26
:103990009060B9B3E86C40F00400E864C649286858
:1039A0005031884234D9404505D0A04203D0484523
:1039B00001D0504502D1C248C01C26E058450BD06A
:1039C000BD492031884207D0BC493031884203D0FC
:1039D000B9498031884202D14FF4807015E0B7496F
:1039E000183988420BD0B4493831884207D0B349DE
:1039F0004831884203D0B0499831884203D14FF40E
:103A0000802002E0A8E04FF08070AB49091D35E04E
:103A1000AA496031884233D9404505D0A04203D03D
:103A2000484501D0504502D1A548C01C25E0584565
:103A30000BD0A1492031884207D0A04930318842BB
:103A400003D09D498031884202D14FF4807014E048
:103A50009A49183988420BD097493831884207D0A3
:103A600096494831884203D093499831884202D11F
:103A70004FF4802001E04FF080708F4908606BE0C8
:103A80008E49884234D9404505D0A04203D04845EC
:103A900001D0504502D18A48C01C25E058450BD0C2
:103AA00085492031884207D084493031884203D08B
:103AB00081498031884202D14FF4807014E07F49FF
:103AC000183988420BD07C493831884207D07B496D
:103AD0004831884203D078499831884202D14FF466
:103AE000802001E04FF0807074495839C86033E09D
:103AF000404505D0A04203D0484501D0504502D1F1
:103B00006F48C01C25E058450BD06B4920318842D6
:103B100007D06A493031884203D0674980318842F2
:103B200002D14FF4807014E06449183988420BD0F8
:103B300061493831884207D060494831884203D012
:103B40005D499831884202D14FF4802001E04FF066
:103B500080705A4958398860042085F83500002063
:103B600085F83400012005B0BDE8F08F0498401CB2
:103B700014D0049830B1FCF7D9FB0199411A04988C
:103B800081420BD955F84C0F40F0200045F8180938
:103B900003206870002028700320E4E7DFF818C1D4
:103BA00028680CF1500C604502D94349091F05E013
:103BB00042496031884203D93F490839096804E025
:103BC0003E4988423F49F9D94968009A11423FF479
:103BD00039AC0399002901684FEA41320FD03121F5
:103BE000002A394A72DA904271D9404505D0A04284
:103BF00003D0484501D050456AD1102673E3112106
:103C0000002A314A71DA90422ED9404505D0A042AF
:103C100003D0484501D0504501D1102621E0584538
:103C20001FD0254B203398421BD0244B3033984271
:103C300017D0254B3033984213D0204B183B984275
:103C40000BD0214B183B984207D01C4B483398426D
:103C500003D01D4B4833984201D13E4601E04FF05E
:103C600080661548001D3EE0144B603398423DD9F4
:103C7000404505D0A04203D0484501D0504501D170
:103C800010262EE058452CD00B4B2033984228D0DC
:103C90000A4B3033984224D00B4B3033984220D01B
:103CA000064B183B984218D0074B183B984214D04B
:103CB000024B483398420CE00864024058600240CE
:103CC000010080000060024058640240AAE30DE356
:103CD000E9E202D0F74B984201D13E4601E04FF0B5
:103CE0008066F4489838066060E044E1F24B984200
:103CF0002ED9404505D0A04203D0484501D05045BB
:103D000001D1102620E058451ED0EA4B783B98425E
:103D10001AD0E94B3033984216D0E64B183B984204
:103D200012D0E54B183B98420AD0E24B603B9842D8
:103D300006D0E14B4833984202D0DE4B984201D185
:103D40003E4601E04FF08066DB485838C6602DE003
:103D5000404505D0A04203D0484501D0504501D18F
:103D6000102620E058451ED0D24B783B98421AD0FE
:103D7000D14B3033984216D0CE4B183B984212D0DC
:103D8000CD4B183B98420AD0CA4B603B984206D0B4
:103D9000C94B4833984202D0C64B984201D13E46A7
:103DA00001E04FF08066C448583886602868904229
:103DB00031D9404505D0A04203D0484501D05045F7
:103DC00001D1202024E058450BD0BA4A783A9042DD
:103DD00007D0B94A3032904203D0B64A183A9042DE
:103DE00002D14FF4006013E0B34A183A90420AD06F
:103DF000B04A603A904206D0AF4A4832904202D070
:103E0000AC4A904202D14FF4001001E04FF0006044
:103E1000A84A943A34E0A84A6032904232D94045E8
:103E200005D0A04203D0484501D0504501D1202003
:103E300024E058450BD09F4A783A904207D09E4ADA
:103E40003032904203D09B4A183A904202D14FF44C
:103E5000006013E0984A183A90420AD0954A603AB6
:103E6000904206D0944A4832904202D0914A904201
:103E700002D14FF4001001E04FF000608D4A983AF3
:103E8000106067E08C4A904232D9404505D0A0428C
:103E900003D0484501D0504501D1202024E05845A9
:103EA0000BD0844A783A904207D0834A303290420D
:103EB00003D0804A183A904202D14FF4006013E0D8
:103EC0007D4A183A90420AD07A4A603A904206D027
:103ED000794A4832904202D0764A904202D14FF459
:103EE000001001E04FF00060734A583AD06031E0B2
:103EF000404505D0A04203D0484501D0504501D1EE
:103F0000202024E058450BD06A4A783A904207D0E6
:103F1000694A3032904203D0664A183A904202D140
:103F20004FF4006013E0644A183A90420AD0614AA4
:103F3000603A904206D0604A4832904202D05D4AD0
:103F4000904202D14FF4001001E04FF000605A4A55
:103F5000583A906028680268120302D485F8351038
:103F600005E00068000302D5212085F83500002017
:103F700085F834001DE390422DD9404505D0A0427C
:103F800003D0484501D0504501D1102620E05845C6
:103F90001ED0484B783B98421AD0474B303398425A
:103FA00016D0444B183B984212D0434B183B9842D2
:103FB0000AD0404B603B984206D03F4B4833984272
:103FC00002D03C4B984201D13E4601E04FF0806662
:103FD0003848943830E0384B603398422ED9404509
:103FE00005D0A04203D0484501D0504501D110264C
:103FF00020E058451ED02F4B783B98421AD02E4BCC
:104000003033984216D02B4B183B984212D02A4B93
:10401000183B98420AD0274B603B984206D0264B6B
:104020004833984202D0234B984201D13E4601E0EA
:104030004FF080661F489838066062E01E4B984239
:104040002ED9404505D0A04203D0484501D0504567
:1040500001D1102620E058451ED0164B783B9842DF
:104060001AD0154B3033984216D0124B183B984259
:1040700012D0114B183B98420AD00E4B603B98422D
:1040800006D00D4B4833984202D00A4B984201D1DA
:104090003E4601E04FF0806607485838C66030E081
:1040A000404505D0A04203D0484501D0504505D138
:1040B000102623E0A06402405860024058451DD0FD
:1040C000F74B98421AD0F74B984217D0F44B603315
:1040D000984213D0F34B483B98420BD0F04B183327
:1040E000984207D0EF4B1833984203D0EC4B78330B
:1040F000984201D13E4601E04FF08066E948883899
:1041000086602868904230D9404505D0A04203D04F
:10411000484501D0504501D1202023E0584509D021
:10412000DF4A904206D0DF4A904203D0DC4A603238
:10413000904202D14FF4006014E0DA4A483A9042CB
:104140000BD0D74A1832904207D0D64A1832904244
:1041500003D0D34A7832904202D14FF4001001E0EC
:104160004FF00060CE4A1C3A33E0CE4A30329042E3
:1041700031D9404505D0A04203D0484501D0504533
:1041800001D1202023E0584509D0C54A904206D0ED
:10419000C44A904203D0C24A6032904202D14FF4E6
:1041A000006014E0BF4A483A90420BD0BC4A183233
:1041B000904207D0BB4A1832904203D0B84A7832B6
:1041C000904202D14FF4001001E04FF00060B44A79
:1041D000203A1060C2E6B34A303A904231D94045A5
:1041E00005D0A04203D0484501D0504501D1202040
:1041F00023E0584509D0AA4A904206D0A94A9042E5
:1042000003D0A74A6032904202D14FF4006014E01C
:10421000A44A483A90420BD0A14A1832904207D0A3
:10422000A04A1832904203D09D4A7832904202D17F
:104230004FF4001001E04FF000609A4A883AD060D5
:104240008CE6404505D0A04203D0484501D05045FA
:1042500001D1202023E0584509D0914A904206D050
:10426000904A904203D08E4A6032904202D14FF47D
:10427000006014E08B4A483A90420BD0884A1832CA
:10428000904207D0874A1832904203D0844A78324D
:10429000904202D14FF4001001E04FF00060814ADB
:1042A000883A90605AE658451DD07D4A90421AD00F
:1042B0007C4A904217D07A4A6032904213D0794AB1
:1042C000483A90420BD0764A1832904207D0754A4D
:1042D0001832904203D0724A7832904201D13E4661
:1042E00001E04FF080666E481C382FE06D4A303296
:1042F00090422DD9404505D0A04203D0484501D079
:10430000504501D110261FE058451DD0644A904207
:104310001AD0644A904217D0614A6032904213D05A
:10432000604A483A90420BD05D4A1832904207D01A
:104330005C4A1832904203D0594A7832904201D1F7
:104340003E4601E04FF080665548203806605EE04A
:10435000544A303A90422DD9404505D0A04203D06E
:10436000484501D0504501D110261FE058451DD0C9
:104370004B4A90421AD04B4A904217D0484A60327A
:10438000904213D0474A483A90420BD0444A1832E0
:10439000904207D0434A1832904203D0404A7832C4
:1043A000904201D13E4601E04FF080663D4888389A
:1043B000C6602CE0404505D0A04203D0484501D05E
:1043C000504501D110261FE058451DD0344A904277
:1043D0001AD0344A904217D0314A6032904213D0FA
:1043E000304A483A90420BD02D4A1832904207D0BA
:1043F0002C4A1832904203D0294A7832904201D197
:104400003E4601E04FF0806626488838866028687E
:10441000026812036BD50068000302D5412085F8BD
:104420003500C6E090422CD9404505D0A04203D0CB
:10443000484501D0504501D110261FE058451DD0F8
:10444000174A90421AD0174A904217D0144A603245
:10445000904213D0134A483A90420BD0104A183277
:10446000904207D00F4A1832904203D00C4A78325B
:10447000904201D13E4601E04FF0806608481C386A
:1044800034E0084A3032904232D9404505D0A0424B
:1044900003D0484501D0504506D1102624E0000045
:1044A000286402408860024058451DD0FE4A904270
:1044B0001AD0FE4A904217D0FB4A6032904213D085
:1044C000FA4A483A90420BD0F74A1832904207D045
:1044D000F64A1832904203D0F34A7832904201D122
:1044E0003E4601E04FF08066EF48203806605EE00F
:1044F000EE4A303A90422DD9404505D0A04203D033
:10450000484501D0504501D110261FE058451DD027
:10451000E54A90421AD0E54A904217D0E24A60320A
:10452000904213D0E14A483A90420BD0DE4A18320A
:10453000904207D0DD4A1832904203D0DA4A7832EE
:10454000904201D13E4601E04FF08066D74888385E
:10455000C6602CE0404505D0A04203D0484501D0BC
:10456000504501D110261FE058451DD0CE4A90423B
:104570001AD0CE4A904217D0CB4A6032904213D024
:10458000CA4A483A90420BD0C74A1832904207D0E4
:10459000C64A1832904203D0C34A7832904201D1C1
:1045A0003E4601E04FF08066C0488838866085F856
:1045B000351005B00020BDE8F08F2DE9F05FBA4955
:1045C00007463031B94CB84DB84E00684A15DFF88F
:1045D000D892DFF8D8A29302783C183D183EDFF855
:1045E000C8B24FF0007C09F14809AAF1600A88427C
:1045F0002BD9AD4924392EE048453BD14FF008086E
:104600000AE0DFF8A48208F1600840453BD19046FB
:1046100002E0984600E0E04611EA080F7BD001680E
:10462000490778D5016821F0040101609E49386886
:104630003031884261D9A04205D0A84203D0B042AF
:1046400001D0484538D1082254E098493031884299
:1046500003D995492839096805E0944930398842D9
:104660009349F8D94968A042C8D0A842C6D0B04200
:10467000C4D0C1E75045CAD05845C8D0DFF82C8215
:104680004045C4D0BDE7DFF8288208F14008404526
:10469000BFD0DFF8148208F118084045B9D0DFF820
:1046A0000C8208F118084045B3D0DFF8FC8108F10E
:1046B00078084045AFD1ACE750451BD0584519D0DC
:1046C0007A49884216D078496031884212D07849B8
:1046D000403188420BD074491831884207D0734961
:1046E0001831884203D070497831884201D11A4686
:1046F00000E062466C481C382EE06C49303188423C
:104700002CD9A04205D0A84203D0B04201D04845E0
:1047100002D108221EE088E050451BD0584519D030
:104720006249884216D060496031884212D060499F
:10473000403188420BD05C491831884207D05B4930
:104740001831884203D058497831884201D11A463D
:1047500000E0624654482038026058E0534930393E
:1047600088422AD9A04205D0A84203D0B04201D045
:10477000484501D108221DE050451BD0584519D0AD
:104780004A49884216D048496031884212D0484987
:10479000403188420BD044491831884207D0434900
:1047A0001831884203D040497831884201D11A46F5
:1047B00000E062463E48C26029E0A04205D0A8421F
:1047C00003D0B04201D0484501D108221DE0504538
:1047D0001BD0584519D03549884216D0324960312E
:1047E000884212D03249403188420BD02E491831CC
:1047F000884207D02D491831884203D02A497831A0
:10480000884201D11A4600E0624629488260F86C6D
:1048100040F00100F864042087F83500002087F894
:104820003400B96C09B1384688471F49214A3868B5
:104830003031D3114FF4800C884240D91A492439C1
:1048400041E048454ED190460CE0DFF85C8008F12D
:104850006008404551D100BF4FF0400802E0984643
:1048600000E0E04611EA080F72D0416909066FD5F1
:10487000416921F0800141610B493868303188423B
:104880006CD9A04267D0A84265D0B04263D04845F9
:1048900061D0504511D058450FD0044988420CD002
:1048A00001496031884207E0286402408860024084
:1048B000006002400100800038D140224BE0F749FF
:1048C000884202D9F649096805E0F449603988420E
:1048D000F449F8D94968A042B5D0A842B3D0B04253
:1048E000B1D0AEE75045B7D05845B5D0DFF8AC836E
:1048F000A8F130084045AFD0A7E7DFF8A88308F15A
:1049000040084045ABD0DFF8988308F140084045A7
:10491000A5D0DFF88883A8F1180840459FD0DFF8BC
:10492000808308F1A00840459BD198E7DD494031DC
:1049300088420BD0DA494031884207D0D74918392C
:10494000884203D0D649A031884203D11A4602E0FA
:104950009DE003E06246D2480C302DE0CF4988420A
:104960002CD9A04226D0A84224D0B04222D048451B
:1049700020D0504509D0584507D0C8493039884221
:1049800003D0C7498831884201D1402212E0C5498D
:10499000403188420BD0C2494031884207D0BF49DC
:1049A0001839884203D0BE49A031884201D11A4645
:1049B00000E06246BA48083002605AE0B94958310E
:1049C00088422BD9A04226D0A84224D0B04222D07F
:1049D000484520D0504509D0584507D0AF49303917
:1049E000884203D0AE498831884201D1402212E08A
:1049F000AC49403188420BD0A9494031884207D0A8
:104A0000A6491839884203D0A549A031884201D16E
:104A10001A4600E06246A348C2602AE0A04226D0BF
:104A2000A84224D0B04222D0484520D0504509D0D9
:104A3000584507D099493039884203D09849883180
:104A4000884201D1402212E09649403188420BD081
:104A500093494031884207D090491839884203D0A1
:104A60008F49A031884201D11A4600E062468D4844
:104A70008260F86C40F00200F864042087F835008A
:104A8000002087F83400B96C09B13846884784495A
:104A9000854A3868583153114FF4807C4FF0807E3E
:104AA000884236D97E49091D37E0484544D19046B1
:104AB0000AE0DFF8EC8108F18808404547D1E0467C
:104AC00002E0984600E0F04611EA080F7ED0016847
:104AD00089077BD5016821F00201016070493868BF
:104AE0005831884262D9A0425DD0A8425BD0B04222
:104AF00059D0484557D0504509D0584507D0674947
:104B00003039884203D066498831884238D16246BC
:104B100049E06249884202D96149096805E0614972
:104B2000583188425F49F8D94968A042BFD0A842AD
:104B3000BDD0B042BBD0B8E75045C0D05845BED07C
:104B4000DFF85881A8F130084045B8D0B1E7DFF868
:104B5000548108F140084045B3D0DFF8448108F1A2
:104B600040084045ADD0DFF83481A8F11808404531
:104B7000A7D0DFF82C8108F1A0084045A3D1A0E719
:104B80004849403188420BD045494031884207D0DE
:104B900042491839884203D04149A031884201D1A5
:104BA0001A4600E072463E480C302FE03B498842EE
:104BB0002ED9A04228D0A84226D0B04224D04845C1
:104BC00022D050450BD0584509D000E090E0334941
:104BD0003039884203D032498831884201D1624657
:104BE00012E03049403188420BD02D494031884293
:104BF00007D02A491839884203D02949A031884270
:104C000001D11A4600E0724625480830026061E092
:104C10002449583188422BD9A04226D0A84224D01A
:104C2000B04222D0484520D0504509D0584507D041
:104C30001A493039884203D019498831884201D154
:104C4000624612E01749403188420BD01449403186
:104C5000884207D011491839884203D01049A03141
:104C6000884201D11A4600E072460E48C26031E027
:104C7000A0422CD0A8422AD0B04228D0484526D005
:104C8000504509D0584507D004493039884203D0EF
:104C900003498831884209D1624618E0B860024071
:104CA000006402400060024004008000F549884230
:104CB0000AD0F549884207D0F2496031884203D0D2
:104CC000F1496031884201D11A4600E07246ED4850
:104CD00040388260F86C40F00400F864042087F8E3
:104CE0003500002087F83400B96C09B13846884790
:104CF000DFF894C34FF4806138680CF1180C8A0215
:104D00000B04604533D9DFF880C3ACF13C0C38E0CC
:104D100048454AD14FF010080AE0DFF86C8308F1EB
:104D2000480840454CD1884602E0904600E098464D
:104D30001CEA080F79D0D0F800C05FEA0C7C74D56B
:104D4000D0F800C05FEA4C384FF0310C6ED5DFF878
:104D5000388308F1180840456ED9A04205D0A84212
:104D600003D0B04201D048453FD1102161E0DFF8C7
:104D700014C30CF1780C604506D9DFF80CC3ACF114
:104D8000400CDCF800C009E0DFF8F8C20CF1180CA8
:104D90006045DFF8F8C2F4D9DCF804C0A042B9D00D
:104DA000A842B7D0B042B5D0B2E75045BBD05845C5
:104DB000B9D0DFF8D08208F148084045B3D0ACE75D
:104DC000DFF8C0824045B0D0DFF8BC824045ACD0AF
:104DD000DFF8B08208F160084045A6D0DFF8A8826D
:104DE00008F160084045A2D19FE7504521D05845C1
:104DF0001FD0DFF8908208F14808404519D0DFF84D
:104E0000888208F14808404513D09E4988420AD05C
:104E10009D49884207D09B496031884203D09A4916
:104E20006031884204D1114603E0ACE0BAE003E00F
:104E300019469548343832E0DFF8488208F178089E
:104E400040452ED9A04205D0A84203D0B04201D09F
:104E5000484501D1102120E050451ED058451CD0B6
:104E6000DFF8208208F14808404516D0DFF81882A4
:104E700008F14808404510D0824988420AD082494A
:104E8000884207D07F496031884203D07E49603133
:104E9000884201D1114600E019467B48383801604C
:104EA00060E0DFF8E08108F1180840452DD9A04204
:104EB00005D0A84203D0B04201D0484501D110210D
:104EC00020E050451ED058451CD0DFF8B88108F1CD
:104ED0004808404516D0DFF8B08108F14808404541
:104EE00010D0684988420AD06749884207D065498E
:104EF0006031884203D064496031884201D1114653
:104F000000E019466148C1602CE0A04205D0A842EB
:104F100003D0B04201D0484501D1102120E05045D6
:104F20001ED058451CD0DFF85C8108F14808404588
:104F300016D0DFF8548108F14808404510D0514997
:104F400088420AD05049884207D04E496031884291
:104F500003D04D496031884201D1114600E0194625
:104F60004A48816038680168090302D487F835C06F
:104F700005E00068000302D5412087F83500396C50
:104F800009B138468847DFF800C14FF4006138683E
:104F90000CF1180C8A024FF0006E604578D93A4B3C
:104FA0003C3B0CE1D0F800805FEAC85805D4D0F84B
:104FB000008028F00808C0F80080DFF8CC8038684E
:104FC00008F1180840452DD9A04205D0A84203D0C9
:104FD000B04201D0484501D1102120E050451ED0FB
:104FE00058451CD0DFF89C8008F14808404516D091
:104FF000DFF8948008F14808404510D021498842E4
:105000000AD02149884207D01E496031884203D026
:105010001D496031884201D1114600E019461A4805
:10502000343838E0DFF85C8008F17808404534D93E
:10503000A04205D0A84203D0B04201D0484501D1DA
:10504000102127E0504525D0584523D0DFF8348083
:1050500008F1480840451DD0DFF82C8008F14808C9
:10506000404517D0074988420AD00749884207D0EF
:1050700004496031884203D003496031884208D135
:10508000114607E040600240406402400060024078
:105090008FE01946FB48016068E7DFF8EC83404584
:1050A00030D9A04205D0A84203D0B04201D0484533
:1050B00001D1102122E0504520D058451ED0DFF804
:1050C000C88308F13008404518D0DFF8B88308F1EC
:1050D0008008404512D0EC49183988420BD0E94984
:1050E0003831884207D0E8494831884203D0E54941
:1050F0009831884201D1114600E01946E2485838FB
:10510000C16033E7A04205D0A84203D0B04201D02D
:10511000484501D1102122E0504520D058451ED0ED
:10512000DFF8648308F13008404518D0DFF8548375
:1051300008F18008404512D0D349183988420BD075
:10514000D0493831884207D0CF494831884203D00E
:10515000CC499831884201D1114600E01946CA482D
:105160005838816002E7484537D100BF4FF020082A
:105170000AE0DFF8108308F18008404538D18846FE
:1051800002E0904600E0F04613EA080F79D0036889
:10519000DB0676D503685B0374D5604563D9A0420E
:1051A00005D0A84203D0B04201D0484539D12021D2
:1051B00056E0B54B6033984203D9B24B083B1B68AD
:1051C00004E0B14B9842B14BF9D95B68A042CDD015
:1051D000A842CBD0B042C9D0C5E75045CFD0584542
:1051E000CDD0DFF8A48208F130084045C7D0C0E731
:1051F000DFF89482A8F118084045C2D0DFF8848215
:1052000008F138084045BCD0DFF87C8208F1480836
:105210004045B6D0DFF86C8208F198084045B2D11D
:10522000AFE750451CD058451AD0974B30339842C1
:1052300016D0944B8033984212D093491839884243
:105240000BD090493831884207D08F494831884285
:1052500003D08C499831884201D1114600E0714653
:105260008848001D2FE0884B603398422DD9A0421A
:1052700005D0A84203D0B04201D0484503D1202137
:1052800020E005E18BE050451CD058451AD07E4BFC
:105290003033984216D07B4B8033984212D07A49F3
:1052A000183988420BD077493831884207D076497F
:1052B0004831884203D073499831884201D1114660
:1052C00000E071466F48016059E06F4B98422BD95E
:1052D000A04205D0A84203D0B04201D0484501D138
:1052E00020211EE050451CD058451AD0664B303363
:1052F000984216D0634B8033984212D062491839D5
:1053000088420BD05F493831884207D05E49483126
:10531000884203D05B499831884201D1114600E0B0
:1053200071465A48C1602AE0A04205D0A84203D085
:10533000B04201D0484501D120211EE050451CD08B
:1053400058451AD0504B3033984216D04D4B8033CD
:10535000984212D04C49183988420BD0494938310B
:10536000884207D048494831884203D0454998319E
:10537000884201D1114600E0714644488160386896
:105380000168090301D4796C03E0006800037FD54C
:10539000F96B00297CD03846BDE8F05F0847036808
:1053A000DB0503D4036823F010030360386860450D
:1053B0002BD9A04205D0A84203D0B04201D0484525
:1053C00001D120211EE050451CD058451AD02E4B4B
:1053D0003033984216D02B4B8033984212D02A4952
:1053E000183988420BD027493831884207D02649DE
:1053F0004831884203D023499831884201D111466F
:1054000000E071461F48001D2DE01F4B603398429D
:105410002BD9A04205D0A84203D0B04201D04845C4
:1054200001D120211EE050451CD058451AD0164B02
:105430003033984216D0134B8033984212D0124921
:10544000183988420BD00F493831884207D00E49AD
:105450004831884203D00B499831884201D1114626
:1054600000E07146074801605EE0074B984231D981
:10547000A04205D0A84203D0B04201D0484508D18F
:10548000202123E00864024058600240006002408E
:1054900053E050451AD0584518D0334B984215D098
:1054A000324B984212D03049483988420BD02F49AC
:1054B0004839884207D02C491831884203D02B49FB
:1054C0001831884201D1114600E0714626488838DB
:1054D000C16029E0A04205D0A84203D0B04201D06B
:1054E000484501D120211CE050451AD0584518D01C
:1054F0001D4B984215D01D4B984212D01A4948397D
:1055000088420BD019494839884207D016491831CA
:10551000884203D015491831884201D1114600E074
:105520007146114888388160F86CF864112087F85A
:105530003500002087F834002AE7BDE8F09F90F896
:1055400035007047C06C704710B5046863608368AD
:10555000402B036803D099600068C26010BD9A6058
:105560000068C16010BD000088600240886402408D
:105570002DE9F04FDFF878B200224FF001084FF02C
:10558000030A4FF00F090BF1040E00BF0B6808FA75
:1055900002F42340A3426FD14D68022D01D0122D99
:1055A0000ED1D50800EB850CDCF820505607F70E1D
:1055B00009FA07F6B5430E69BE402E43CCF82060C9
:1055C000066855000F790AFA05FC07F0030726EA7A
:1055D0000C06AF40374307604E68012E05D0022EFF
:1055E00003D0112E01D0122E0ED18768CE6827EA83
:1055F0000C07AE403E4386604668A6430C79C4F370
:105600000014944034434460C4688E6824EA0C0457
:10561000AE402643C6604C68E4006BD5754C2568E7
:1056200045F480452560744C22F003052F19D7F806
:1056300008589407240F09FA04F6B5436F4EB04298
:1056400001D100262EE06E4EB04201D1012629E0A4
:105650006C4EB04201D1022624E06B4EB04201D123
:1056600003261FE0694EB04201D104261AE0684EBD
:10567000B04202D1052615E03CE0664EB04201D1B1
:1056800006260FE0644EB04201D107260AE0634EC1
:10569000B04201D1082605E0614EB04201D1092691
:1056A00000E00A26A6402E43C7F80868DBF8004051
:1056B0005D464E689C43F60300D51C432C60DEF823
:1056C000004075464E689C43B60300D51C432C60D1
:1056D000474D08352C684E689C43F60200D51C43A4
:1056E0002C60434D0C352C684E689C43B60200D5A7
:1056F0001C432C60521C102AFFF448AFBDE8F08F09
:105700002DE9F04700224FF0010900BF09FA02F429
:1057100001EA0403A3423BD1066857000325BD40BC
:10572000AE430660D60800EB8606D6F820C05707C1
:105730004FEAD7684FF00F0A0AFA08F72CEA070C6D
:10574000C6F820C08668AE4386604668A6434660B9
:10575000C468AC43C4609407250F0AFA05F4264DCB
:1057600022F003063544D5F80868A643C5F8086852
:105770001F4C25689D432560241D25689D43256099
:10578000241D25689D432560241D25689D432560B3
:10579000521C102ABAD3BDE8F0870069084000D037
:1057A000012070470AB10183704741837047426905
:1057B0004A404261704708B541F480320092C261AC
:1057C000C1610099C161C1690091C069C00301D57F
:1057D000002008BD012008BD7047054910B51431EF
:1057E0000A68024202D00860FFF7F6FF10BD000011
:1057F000003C0140443802400030014000000240BB
:105800000004024000080240000C02400010024068
:105810000014024000180240001C02400020024018
:1058200000240240F94810B5016841F0810101608F
:10583000F64A0021083211600268F54B1A400260F6
:10584000021D11601368F34C23431360EF4A843246
:1058500011601368F04C23431360026822F4802225
:105860000260EA480C30016010BD2DE9F84F044693
:105870000078DFF8A8A3E54DC0074FF000064ED032
:10588000DAF800105046C1F38101012908D0006800
:10589000C0F3810002280AD1281D0068400206D505
:1058A000286880033BD56068012874D137E0DFF8B1
:1058B0005C9309F1020989F80060FAF737FD804628
:1058C00041F2883706E000BFFAF730FDA0EB080090
:1058D000B8427DD828688003F6D4207989F8000082
:1058E0006068012803D0FAF721FD804614E0FAF73A
:1058F0001DFD804606E000BFFAF718FDA0EB08008A
:10590000B842E6D828688003F6D508E0FAF70EFD1D
:10591000A0EB0800B842DCD828688003F6D42078D1
:10592000BF4F80074FF0010B45D5DAF80010504605
:1059300011F00C0F4FF0F80909D00068C0F3810096
:1059400002280BD1B148001D0068400206D4286827
:10595000800714D5E0680128A7D110E0E068D8B12D
:10596000C7F800B0FAF7E2FC804605E0FAF7DEFC83
:10597000A0EB08006428ACD828688007F6D5286812
:1059800099FAA9F22169B2FA82F220F0F800914066
:10599000084328600FE0F8E03E60FAF7C7FC804655
:1059A00006E000BFFAF7C2FCA0EB080064280FD89D
:1059B00028688007F6D42078000729D5DFF85C92A4
:1059C0009848616909F16C0999B1C0F800B000E02C
:1059D00087E0FAF7ABFC804606E000BFFAF7A6FCCA
:1059E000A0EB080064287CD8D9F800008007F5D522
:1059F0000EE00660FAF79AFC804605E0FAF796FC9E
:105A0000A0EB080064286CD8D9F800008007F5D412
:105A10002078400756D581483830016841F08051E0
:105A20000160DFF80492D9F8001041F48071C9F8E0
:105A30000010FAF77BFC804606E000BFFAF776FC20
:105A4000A0EB080064284CD8D9F80000C005F5D5B3
:105A5000DFF8C88108F1680888F80060FAF766FC8A
:105A600041F28839009005E0FAF760FC0099411A8C
:105A7000494536D8D8F800008007F5D4207A88F850
:105A80000000A068012803D0FAF750FC009015E050
:105A9000FAF74CFC009005E0FAF748FC0099411A2F
:105AA00049456AD8D8F800008007F5D50AE000BF5C
:105AB000FAF73CFC0099411A49455ED8D8F8000035
:105AC0008007F5D4A069E0B3DAF80010C1F38101D2
:105AD00002295AD002283E6604D0FAF727FC044671
